:0300000002014AB0
:0C014A00787FE4F6D8FD75810D020156A7
:0B015600120135E4F59012008280FBDE
:03000B0002000EE2
:10000E00C0E0C0F0C0D075D000C000C004C005C0B4
:03001E0006C00712
:100021000509E50970020508AE08FF7C007D641230
:1000310000E08C088D09758A66758CFCD3E50B95FB
:1000410009E50A95085002C290D3E50B9509E50A26
:1000510095084002D290D3E50D9509E50C9508501D
:1000610002C291D3E50D9509E50C95084002D291A4
:10007100D007D006D005D004D000D0D0D0F0D0E049
:01008100324C
:100135005389F0438901758A66758CFCC28DD28C12
:05014500D2AFD2A92297
:1000820020A41220A50F20A60C20A709E4F50AF54A
:100092000BF50CF50D20A41530A51230A60F20A7E4
:1000A2000C750A00750B64750C00750D6420A4159F
:1000B20020A51230A60F20A70C750A00750B287513
:1000C2000C00750D6420A41530A51220A60F20A7E0
:0E00D2000C750A00750B64750C00750D282264
:1000E000BC000BBE0029EF8DF084FFADF022E4CC04
:1000F000F875F008EF2FFFEE33FEEC33FCEE9DECCD
:10010000984005FCEE9DFE0FD5F0E9E4CEFD22ED12
:10011000F8F5F0EE8420D21CFEADF075F008EF2F5C
:10012000FFED33FD4007985006D5F0F222C398FD4D
:050130000FD5F0EA22EA
:00000001FF
