:0300000002025A9F
:0C025A00787FE4F6D8FD75813F0202A118
:1005E6004E756D315F004E756D325F004E756D3321
:0405F6005F003A0068
:10057500021A00010612000000000000060C00002F
:0B05850000000000011C000218000034
:1000FD001205FA1205D1E51945186008E4F518F551
:10010D00191204F1120631751D008F1EE51E6401D2
:10011D00451D701DE51C7019051BE51B7002051AA8
:10012D00C39404E51A648094804006751A00751B0B
:10013D0001E51E6402451D702DE51C7029AF1BEFF6
:10014D0025E02410F80806E618700106EF25E024D6
:10015D0010F8E6FE08E6640A4E700BE51B25E02458
:10016D0010F8E4F608F6E51E6403451D702DE51C38
:10017D007029AF1BEF25E0240AF80806E618700178
:10018D0006EF25E0240AF8E6FE08E6643C4E700B07
:10019D00E51B25E0240AF8E4F608F6E51E6404459F
:1001AD001D700CE51C70047F0180027F008F1CAF59
:0901BD001BAE1A1202E602010356
:1002E6008E1F8F20E5206401451F700D7BFF7A0568
:1002F60079E67D017F01120517E5206402451F702E
:100306000D7BFF7A0579EC7D017F01120517E5204B
:100316006403451F700D7BFF7A0579F27D017F012D
:10032600120517E51B25E02410F8E6FA08E6FB752A
:1003360025027D067F011205587BFF7A0579F87D37
:10034600087F01120517E51B25E0240AF8E6FA08DE
:10035600E6FB7525027D097F011205587F147E0094
:030366000205A7E6
:1004F100751F0B7520B8E5201520AE1F7002151F62
:100501004E600BB2A57F017E001205A780E8E4F5DD
:050511001FF520C2A54A
:0105160022C2
:03001B0002001EC2
:10001E00C0E0C0F0C083C082C0D075D000C000C0A8
:0D002E0001C002C003C004C005C006C00729
:10003B00758B66758DFC0509E50970020508050BC6
:10004B00E50B7002050A64E87004E50A640370733B
:10005B00E51C6069AF1BEF25E0240AF8E6FC08E617
:10006B004C704CEF25E02410F8E6FE08E64E7023AA
:10007B00EF25E0240AF87600087600EF25E024103F
:10008B00F87600087600751C00C2A175180075196A
:10009B0001802AAF1BEF25E02410F808E616187034
:1000AB000116EF25E0240AF8760008763B800EE572
:1000BB001B25E0240AF808E61618700116750A00CD
:1000CB00750B00D3E5099414E5089400400912045C
:0700DB004D750800750900D6
:1000E200D007D006D005D004D003D002D001D00072
:0B00F200D0D0D082D083D0F0D0E0321C
:1005A700EF1FAC0670011E4C600A7D027CEFDCFE7B
:0405B700DDFC80ECFB
:0105BB00221D
:10036900E4F53EF53F20B1167F14FE1205A730B122
:10037900FD7F147E001205A7753E00753F0120B070
:10038900177F147E001205A730B0FD7F147E00127E
:1003990005A7753E00753F0220B2177F147E001233
:1003A90005A730B2FD7F147E001205A7753E0075C2
:1003B9003F0320B3177F147E001205A730B3FD7FDA
:1003C900147E001205A7753E00753F04AE3EAF3F8F
:0103D9002201
:06060E00C2A58F80D2A7F7
:080614007F027EEFDEFEDFFC39
:01061C0022BB
:0A061D00C2A612060EC2A7020614C0
:10053A00CFCDCFCECCCE1202057C007D0A120205A9
:04054A00ED2430FF6D
:0A054E00D2A612060EC2A702061480
:10000300AE07BE0104ED148006BE0209ED243F4491
:0600130080FF12061D2211
:1005FA007F3812061D7F0C12061D7F0612061D7F0C
:04060A000102061DC6
:0A062700AC03120003AF0402054EFD
:060517008B218A228923DA
:10051D00120003E4FDAB21AA22A9238D827583006D
:0C052D001201C6FF600612054E0D80E9A9
:01053900229F
:0C04BE007F0AEA24FFFDE434FFFC7E000E
:0804CA008E268F278C288D2956
:1004D2007F017E00E4FBEBC39529E5286480F87474
:0E04E2008098500AAC26AD271201F30B80E87B
:0104F00022E9
:040558008A238B2443
:10055C00120003AA25EAD39400400D1204BEAC236A
:08056C00AD2412053A1A80EDDE
:010574002264
:1003DA00120003C3EA64809480400B7F2B12054EFF
:1003EA008A2F8B30800E7F2D12054EC3E49BF53089
:1003FA00E49AF52FAA2EEAD39400400D1204BEAC5B
:09040A002FAD3012053A1A80ED05
:0104130022C6
:040414008A338B3468
:10041800120003AA35EAD3940040297F101204C0C1
:10042800AC33AD34CFCDCFCECCCE120205EF540FC6
:10043800FEC3940AEE5004243080022437FF1205CC
:040448004E1A80D1F7
:01044C00228D
:040486008A388B39EC
:10048A00120003AA3AEAD394004028EA24FFFDE4C2
:10049A0034FFFC7F027E001204CAAC38AD39CFCDDE
:1004AA00CFCECCCE120205EF54012430FF12054EF6
:0304BA001A80D2D3
:0104BD00221C
:1005BC005389F0438901758A66758CFCC28DD28C87
:0505CC00D2AFD2A9220C
:10059100E4FF20B1010F20B0027F0220B2027F03ED
:0505A10020B3027F04FD
:0105A6002232
:05063100E4AF3DF53DC2
:0106360022A1
:10044D00853C3B1205918F3CE53BB40107E53C70C3
:10045D0003753D01E53BB40207E53C7003753D02B4
:10046D00E53BB40307E53C7003753D03E53BB40480
:08047D0007E53C7003753D0426
:010485002254
:1005D10053890F438910758B66758DFCC28FD28E3E
:0505E100D2AFD2AB22F5
:100266000200FDE493A3F8E493A34003F68001F2B1
:1002760008DFF48029E493A3F85407240CC8C33399
:10028600C4540F4420C8834004F456800146F6DF68
:10029600E4800B0102040810204080900575E47E7E
:1002A600019360BCA3FF543F30E509541FFEE4935D
:1002B600A360010ECF54C025E060A840B8E493A324
:1002C600FAE493A3F8E493A3C8C582C8CAC583CA4F
:1002D600F0A3C8C582C8CAC583CADFE9DEE780BE07
:01059000006A
:1001C600BB010CE58229F582E5833AF583E02250EE
:1001D60006E92582F8E622BBFE06E92582F8E22238
:0D01E600E58229F582E5833AF583E4932252
:1001F300EF8DF0A4A8F0CF8CF0A428CE8DF0A42E20
:02020300FE22D9
:10020500BC000BBE0029EF8DF084FFADF022E4CCDD
:10021500F875F008EF2FFFEE33FEEC33FCEE9DECA6
:10022500984005FCEE9DFE0FD5F0E9E4CEFD22EDEC
:10023500F8F5F0EE8420D21CFEADF075F008EF2F36
:10024500FFED33FD4007985006D5F0F222C398FD27
:050255000FD5F0EA22C4
:00000001FF
