:100C7B0020202D20202D20200020203A20203A203B
:050C8B00200020200004
:0E0C4D0002160000021300000115000118003D
:100A3500120CA5120CBA1200037BFF7A0C797B7D90
:100A4500017F01120BEF7BFF7A0C79847D017F0218
:100A5500120BEF1203F412090B8E168F17E51764AC
:100A65000145167018E5156008E4F513F514120331
:100A7500F4E51570047F0180027F008F15E5157080
:0B0A85000512097C80D012056E80CBAA
:10097C001207F2E520FB7A00750C027D017F011253
:10098C000C30E521FB7A00750C027D047F01120C02
:10099C0030E522FB7A00750C027D077F01120C30CA
:1009AC00E523FB7A00750C027D017F02120C30E509
:1009BC0024FB7A00750C027D047F02120C30E525B5
:0D09CC00FB7A00750C027D077F02020C30E3
:10056E00E5176402451670160514E514700205139E
:10057E00AE13FF7C007D061207BC8C138D14E5179D
:10058E0064034516700674202514F806E5176404F6
:10059E004516700674202514F8167B007A00792013
:1005AE00AF14AE1312000EE518600FE520FB7A00B3
:1005BE00750C027D017F01120C30E5187022E514D6
:1005CE004513701CAE13AF14FC7D031207BCED7502
:1005DE00F003A404FD7BFF7A0C798D7F01120BEFE3
:1005EE00E518600FE521FB7A00750C027D047F0192
:1005FE00120C30E5187015E51464014513700D7B6F
:10060E00FF7A0C798D7D047F01120BEFE518600FD8
:10061E00E522FB7A00750C027D077F01120C30E596
:10062E00187015E51464024513700D7BFF7A0C7972
:10063E008D7D077F01120BEFE518600FE523FB7A26
:10064E0000750C027D017F02120C30E5187015E565
:10065E001464034513700D7BFF7A0C798D7D017F39
:10066E0002120BEFE518600FE524FB7A00750C0201
:10067E007D047F02120C30E5187015E514640445F4
:10068E0013700D7BFF7A0C798D7D047F02120BEFB8
:10069E00E518600FE525FB7A00750C027D077F02D9
:1006AE00120C30E5187015E51464054513700D7BBA
:0D06BE00FF7A0C798D7D077F02120BEF2271
:10000E008B088A09890AEF64054E6006EF64044E78
:10001E007039AB08AA09A90A8F828E83120706D3FC
:10002E00648094BB40088F828E83E4120733AB0842
:10003E00AA09A90A8F828E83120706C36480948050
:10004E0050098F828E83743B120733EF64034E7018
:10005E0039AB08AA09A90A8F828E83120706D364C8
:10006E0080949740088F828E83E4120733AB08AAE0
:10007E0009A90A8F828E83120706C364809480506A
:10008E00098F828E837417120733EF64014E703A14
:10009E00AB08AA09A90A8F828E83120706D3648041
:1000AE00948C40098F828E837401120733AB08AA99
:1000BE0009A90A8F828E83120706C3648094815029
:1000CE00098F828E83740C120733EF4E7039AB0892
:1000DE00AA09A90A8F828E83120706D3648094E33D
:1000EE0040088F828E83E4120733AB08AA09A90A4F
:1000FE008F828E83120706C36480948050098F828C
:10010E008E837463120733AB08AA09A90A90000103
:10011E00120706FF6401601DEF64036018EF6405AB
:10012E006013EF6407600EEF64086009EF640A6005
:10013E0004EFB40C2A900002120706D36480949F39
:10014E004008900002740112073390000212070655
:10015E00C3648094815008900002741F120733907C
:10016E000001120706FF6404600EEF64066009EFDB
:10017E0064096004EFB40B2A900002120706D364E0
:10018E0080949E4008900002740112073390000282
:10019E00120706C3648094815008900002741E12E8
:1001AE000733900001120706640270391206EDFF44
:1001BE0075F0041206CBAFF0EF602A900002120722
:1001CE0006D36480949C4008900002740112073399
:1001DE00900002120706C3648094815008900002BA
:1001EE00741C120733900001120706640270391254
:1001FE0006EDFF75F0041206CBAFF0EF702A9000FB
:10020E0002120706D36480949D4008900002740188
:10021E00120733900002120706C3648094815008BF
:09022E00900002741D1207332236
:03000B00020B895C
:040B8900C0E0C0D038
:100B8D000512E51270020511758A66758CFCE51269
:100B9D00B4E817E511B40312E51860057518008067
:0A0BAD0003751801751100751200A0
:050BB700D0D0D0E032B7
:060CCE00C2A58F80D2A731
:080CD4007F027EEFDEFEDFFC73
:010CDC0022F5
:0A0CDD00C2A6120CCEC2A7020CD46E
:100C1200CFCDCFCECCCE1207677C007D0A120767FC
:040C2200ED2430FF8E
:0A0C2600D2A6120CCEC2A7020CD415
:100C6500AE07BE0104ED148006BE0209ED243F4423
:060C750080FF120CDD22DD
:100CBA007F38120CDD7F0C120CDD7F06120CDD7FF3
:040CCA0001020CDD3A
:0A0CE700AC03120C65AF04020C26EA
:060BEF008B088A09890A47
:100BF500120C65E4FDAB08AA09A90A8D827583006C
:0C0C0500120706FF6006120C260D80E9A5
:010C110022C0
:0C0BBC007F0AEA24FFFDE434FFFC7E0009
:080BC8008E0D8F0E8C0F8D10B5
:100BD0007F017E00E4FBEBC39510E50F6480F874A1
:0E0BE0008098500AAC0DAD0E1207550B80E840
:010BEE0022E4
:040C30008A0A8B0B96
:100C3400120C65AA0CEAD39400400D120BBCAC0A4A
:080C4400AD0B120C121A80ED39
:010C4C002285
:100ADE00120C65C3EA64809480400B7F2B120C26A7
:100AEE008A1E8B1F800E7F2D120C26C3E49BF51FD2
:100AFE00E49AF51EAA1DEAD39400400D120BBCAC6D
:090B0E001EAD1F120C121A80ED3D
:010B170022BB
:040B18008A298B2A71
:100B1C00120C65AA2BEAD3940040297F10120BBE4D
:100B2C00AC29AD2ACFCDCFCECCCE120767EF540F68
:100B3C00FEC3940AEE5004243080022437FF120CBA
:040B4C00261A80D114
:010B50002282
:040B51008A2E8B2F2E
:100B5500120C65AA30EAD394004028EA24FFFDE48C
:100B650034FFFC7F027E00120BC8AC2EAD2FCFCD1B
:100B7500CFCECCCE120767EF54012430FF120C26DE
:030B85001A80D201
:010B8800224A
:100C9000EF1FAC0670011E4C600A7D027CEFDCFE8B
:040CA000DDFC80EC0B
:010CA400222D
:10023700E4F531F5327590FFC2932097167F14FECF
:10024700120C903097FD7F147E00120C90753100D0
:100257007532012096177F147E00120C903096FDA0
:100267007F147E00120C90753100753205209517AA
:100277007F147E00120C903095FD7F147E00120CC7
:10028700907531007532092094177F147E00120C87
:10029700903094FD7F147E00120C907531007532FA
:1002A7000D7590FFC2922097177F147E00120C9055
:1002B7003097FD7F147E00120C9075310075320265
:1002C7002096177F147E00120C903096FD7F147EC7
:1002D70000120C907531007532062095177F147E39
:1002E70000120C903095FD7F147E00120C90753132
:1002F7000075320A2094177F147E00120C903094F8
:10030700FD7F147E00120C9075310075320E7590CA
:10031700FFC2912097177F147E00120C903097FD33
:100327007F147E00120C90753100753203209617EA
:100337007F147E00120C903096FD7F147E00120C05
:10034700907531007532072095177F147E00120CC7
:10035700903095FD7F147E00120C90753100753238
:100367000B2094177F147E00120C903094FD7F149D
:100377007E00120C9075310075320F7590FFC29098
:100387002097177F147E00120C903097FD7F147E04
:1003970000120C907531007532042096177F147E79
:1003A70000120C903096FD7F147E00120C90753170
:1003B700007532082095177F147E00120C90309537
:1003C700FD7F147E00120C9075310075320C20945D
:1003D700177F147E00120C903094FD7F147E00125C
:0C03E7000C90753100753210AE31AF3251
:0103F30022E7
:100CA5005389F0438901758A66758CFCC28DD28C97
:050CB500D2AFD2A9221C
:10090B00E4F508F50920B1167F14FE120C9030B1F6
:10091B00FD7F147E00120C9075080075090120B044
:10092B00177F147E00120C9030B0FD7F147E0012E6
:10093B000C9075080075090220B2177F147E001207
:10094B000C9030B2FD7F147E00120C907508007570
:10095B00090320B3177F147E00120C9030B3FD7F78
:10096B00147E00120C90750800750904AE08AF09CF
:01097B002259
:090C5B000720170B0C15313707B7
:05000300C2B5C2B622E7
:0509D9002DFDEE3CFCC9
:0609DE008C088D09AB0737
:1009E400D2B5E4FD74017E00A805088005C333CEAA
:1009F40033CED8F9FFEBF582EF558224FF92B4D2BF
:100A0400B6C2B60DBD08DDE4FD74017E00A805087C
:100A14008005C333CE33CED8F9FFE5085EFEE50981
:100A24005F4E24FF92B4D2B6C2B60DBD08DBC2B588
:010A3400229F
:020A9000AD07B0
:100A9200E4F9430501D2B5FB74017E00A803088086
:100AA20005C333CE33CED8F9FFEDF582EF5582245C
:100AB200FF92B4C2B6D2B60BBB08DDE4FBD2B6C21B
:100AC200B630B40D7401A803088002C333D8FC42C7
:0B0AD200010BBB08E8C2B5C2B4AF01C5
:010ADD0022F6
:1003F400E4FDFC7F8E1209DEE52075F00A1206CBBF
:10040400FF3395E0FEEFC4F8540FC868FFEEC45400
:10041400F048FEE52075F00A1206CBADF0ED3395F9
:10042400E0FCEF7F8C1209D9E52175F00A1206CBA6
:10043400FF3395E0FEEFC4F8540FC868FFEEC454D0
:10044400F048FEE52175F00A1206CBADF0ED3395C8
:10045400E0FCEF7F881209D9E52275F00A1206CB79
:10046400FF3395E0FEEFC4F8540FC868FFEEC454A0
:10047400F048FEE52275F00A1206CBADF0ED339597
:10048400E0FCEF2DFDEE3CFC7F861209DEE52375D2
:10049400F00A1206CBFF3395E0FEEFC4F8540FC800
:1004A40068FFEEC454F048FEE52375F00A1206CB4B
:1004B400ADF0ED3395E0FCEF2DFDEE3CFC7F8412B6
:1004C40009DEE52475F00A1206CBFF3395E0FEEF52
:1004D400C4F8540FC868FFEEC454F048FEE5247510
:1004E400F00A1206CBADF0ED3395E0FCEF2DFDEEF6
:1004F4003CFC7F821209DEE52575F00A1206CBFF6B
:100504003395E0FEEFC4F8540FC868FFEEC454F00E
:1005140048FEE52575F00A1206CBADF0ED3395E003
:10052400FCEF2DFDEE3CFC7F801209DEE52675F024
:100534000A1206CBFF3395E0FEEFC4F8540FC868E7
:10054400FFEEC454F048FEE52675F00A1206CBAD62
:10055400F0ED3395E0FCEF2DFDEE3CFC7F8A1209B3
:0A056400DE7D807C007F8E0209DE40
:1007F2007F8C120A90EFC4540F75F00AA4FEEF54D6
:100802000F2EF5207F88120A90EFC4540F75F00A5C
:10081200A4FEEF540F2EF5217F86120A90EFC454E6
:100822000F75F00AA4FEEF540F2EF5227F84120AF0
:1008320090EFC4540F75F00AA4FEEF540F2EF52367
:100842007F82120A90EFC4540F75F00AA4FEEF548F
:100852000F2EF5247F80120A90EFC4540F75F00A10
:10086200A4FEEF540F2EF5257F8A120A90EFC4548E
:0C0872000F75F00AA4FEEF540F2EF526BF
:01087E002257
:0300000002087F74
:0C087F00787FE4F6D8FD7581320208C6CF
:1006CB00C2D530F707B2D563F0FF05F030E70CB2B7
:1006DB00D5F4048463F0FF05F080018430D502F477
:0206EB000422E7
:1006ED00BB010689828A83E0225002E722BBFE020B
:0906FD00E32289828A83E493223E
:10070600BB010CE58229F582E5833AF583E02250A8
:1007160006E92582F8E622BBFE06E92582F8E222F2
:0D072600E58229F582E5833AF583E493220C
:10073300F8BB010DE58229F582E5833AF583E8F0FC
:10074300225006E92582C8F622BBFE05E92582C8A8
:02075300F22290
:10075500EF8DF0A4A8F0CF8CF0A428CE8DF0A42EB8
:02076500FE2272
:10076700BC000BBE0029EF8DF084FFADF022E4CC76
:10077700F875F008EF2FFFEE33FEEC33FCEE9DEC3F
:10078700984005FCEE9DFE0FD5F0E9E4CEFD22ED85
:10079700F8F5F0EE8420D21CFEADF075F008EF2FCF
:1007A700FFED33FD4007985006D5F0F222C398FDC0
:0507B7000FD5F0EA225D
:1007BC00C2D5EC30E709B2D5E4C39DFDE49CFCEE58
:1007CC0030E715B2D5E4C39FFFE49EFE120767C362
:1007DC00E49DFDE49CFC800312076730D507C3E45D
:0607EC009FFFE49EFE22C7
:10088B00020A35E493A3F8E493A34003F68001F244
:10089B0008DFF48029E493A3F85407240CC8C3336E
:1008AB00C4540F4420C8834004F456800146F6DF3D
:1008BB00E4800B0102040810204080900C4DE47E74
:1008CB00019360BCA3FF543F30E509541FFEE49332
:1008DB00A360010ECF54C025E060A840B8E493A3F9
:1008EB00FAE493A3F8E493A3C8C582C8CAC583CA24
:1008FB00F0A3C8C582C8CAC583CADFE9DEE780BEDC
:010C6400008F
:00000001FF
