:030000000206D81D
:0C06D800787FE4F6D8FD75814C02071F06
:1008470020202020202020202020202020202020A1
:1008570020002D502D002020202020002D002020BA
:10086700202020202020002D532D00202020202074
:0A0877002000202020202020200077
:0C0B7200012E00013B00013A00012700A9
:10002600E4FF1209FC8F3C120AD5120B4B120B3659
:10003600120BE68F2F1202C28F28AF3CEF3395E0EA
:10004600FE120BAC8F3DE52FB40118E52E70047F30
:100056000180027F008F2EE52E6005752701800343
:10006600E4F527E52FB4020CE53B70047F0180021E
:100076007F008F3BE52FB40310E53C6464600AE51E
:100086003B6006740A253CF53CE52FB40410E53CBC
:10009600649C600AE53B600674F6253CF53CE52861
:1000A600B40113B2A1E53CFD7C00E4FF120A537FC4
:1000B600057E0012000EE528B4020CE52770047FC9
:1000C6000180027F008F27E5276002D292E5277024
:1000D60002C292E52E701A7BFF7A0879477D017F6E
:1000E60001120A777BFF7A0879477D017F02120A9F
:1000F60077E52E7003020036E53B60030201E27BE2
:10010600FF7A0879597D017F01120A77D3E53C64AD
:100116008094804051E53C64646020E53CFB339567
:10012600E0FA750C027D047F01120AB87BFF7A089B
:10013600795D7D067F01120A778011E53CFB3395D8
:10014600E0FA750C037D047F01120AB8E53C706F76
:10015600750C01FBFA7D047F01120AB87BFF7A0851
:10016600795D7D05803CC3E53C6480948050507B7E
:10017600FF7A0879637D047F01120A77E53C649C67
:10018600AF3C6025EF3395E0FEC3E49FFBE49EFAA7
:10019600750C027D057F01120AB87BFF7A08795D2E
:1001A6007D077F01120A778016EF3395E0FEC3E4E0
:1001B6009FFBE49EFA750C037D057F01120AB8E5E4
:1001C6003C7019750C01FBFA7D047F01120AB87B9D
:1001D600FF7A0879657D057F01120A77E53B700392
:1001E6000200367BFF7A08796E7D017F01120A775D
:1001F600D3E53C648094804030E53C64646010E55F
:100206003A601EE53CFB3395E0FA750C02800EE57C
:100216003A600EE53CFB3395E0FA750C037D0480ED
:100226005C7BFF7A08795D8061C3E53C64809480DD
:10023600505F7BFF7A0879637D047F01120A77E5B8
:100246003C649C6021E53A6015AF3CEF3395E0FED7
:10025600C3E49FFBE49EFA750C027D05801F7BFFBD
:100266007A0879728024E53A601AAF3CEF3395E05C
:10027600FEC3E49FFBE49EFA750C037D057F011225
:100286000AB8800D7BFF7A0879797D047F01120A0E
:1002960077E53C6003020036E53A6010750C01E430
:1002A600FBFA7D047F01120AB80200367BFF7A084A
:0C02B60079797D047F01120A770200367E
:030023000207646D
:10076400C0E0C0F0C083C082C0D075D000C000C05B
:1007740001C002C003C004C005C006C0071207FCC4
:100784007B007A007930120AF01207B01209CBC24A
:1007940098D007D006D005D004D003D002D001D021
:0C07A40000D0D0D082D083D0F0D0E03262
:03000B000205608B
:10056000C0E0C0F0C083C082C0D075D000C000C061
:0D05700001C002C003C004C005C006C007E2
:10057D000522E522700205210524E52470020523DC
:10058D000526E52670020525AE25FF7C007D64124B
:10059D00050B8C258D26758A66758CFCE5226414F9
:1005AD00452170091208F4752100752200C3E52458
:1005BD0094F4E52394014012E53A70047F01800222
:1005CD007F008F3A752300752400E52E6034E527F2
:1005DD006030C3E53C648094804014C291E526955B
:1005ED003DE52594005004D2908017C2908013C22F
:1005FD0090C3E526953DE52594005004D2918002E7
:02060D00C29198
:10060F00D007D006D005D004D003D002D001D0003F
:0B061F00D0D0D082D083D0F0D0E032E9
:1007B000E4F511F512F511F512AF1274302FF8E6C9
:1007C000B42D0EE5124511600874302FF8E4F68060
:1007D0000E0512E51270020511640A451170DA7BEC
:1007E000007A00793012062A8E298F2A7431251258
:0B07F000F9E4FAFB12062A8E2C8F2D74
:0107FB0022DB
:1009CB00AF3CEF3395E0FEEFB52A25EEB52921E5D7
:1009DB003B601DD3E52D9464E52C6480948050100E
:1009EB00C3E52D949CE52C6480947F4003852D3CBE
:0109FB0022D9
:10000E00EF1FAC0670011E4C600A7D027CEFDCFE19
:04001E00DDFC80EC99
:0100220022BB
:100AD50053877F75985053890F438920758BFD7512
:0B0AE5008DFDC2ABD28ED2AFD2AC228E
:080003008F993099FDC299228A
:100AF000C2AC12047F6010F5993099FDC29974015F
:0A0B000029F9E43AFA80EBD2AC22A6
:1007FC00751100751200751330E4FFAB11AA12A924
:10080C0013E5991204C5E4FEC298C3EF6480948A80
:10081C0050270F74012513F513E43512F5122098A7
:10082C00DA0EEED3948C40F6AB11AA12A9138E8279
:0A083C00758300E41204D7C322D331
:01084600228F
:060B8200C2A58F80D2A77E
:080B88007F027EEFDEFEDFFCC0
:010B90002242
:0A0BB800C2A6120B82C2A7020B882E
:100A9A00CFCDCFCECCCE12050B7C007D0A12050B32
:040AAA00ED2430FF08
:0A0AAE00D2A6120B82C2A7020B8829
:100B0A00AE07BE0104ED148006BE0209ED243F447F
:060B1A0080FF120BB8225F
:100B4B007F38120BB87F0C120BB87F06120BB87FD5
:040B5B0001020BB8D0
:0A0BC200AC03120B0AAF04020AAEE6
:060A77008B088A09890AC0
:100A7D00120B0AE4FDAB08AA09A90A8D8275830041
:0C0A8D00120498FF6006120AAE0D80E90A
:010A9900223A
:0C0965007F0AEA24FFFDE434FFFC7E0062
:080971008E0D8F0E8C0F8D100E
:100979007F017E00E4FBEBC39510E50F6480F874FA
:0E0989008098500AAC0DAD0E1204F90B80E8F8
:01099700223D
:040AB8008A0A8B0B10
:100ABC00120B0AAA0CEAD39400400D120965AC0A79
:080ACC00AD0B120A9A1A80ED2D
:010AD40022FF
:10088100120B0AC3EA64809480400B7F2B120AAEDC
:100891008A438B44800E7F2D120AAEC3E49BF5443C
:1008A100E49AF543AA42EAD39400400D120965ACDB
:0908B10043AD44120A9A1A80EDCD
:0108BA00221B
:0408BB008A1C8B1DEB
:1008BF00120B0AAA1EEAD3940040297F101209676F
:1008CF00AC1CAD1DCFCDCFCECCCE12050BEF540F40
:1008DF00FEC3940AEE5004243080022437FF120A1C
:0408EF00AE1A80D1EC
:0108F30022E2
:04092D008A478B4822
:10093100120B0AAA49EAD394004028EA24FFFDE4F5
:1009410034FFFC7F027E00120971AC47AD48CFCD68
:10095100CFCECCCE12050BEF54012430FF120AAEDC
:030961001A80D227
:010964002270
:030B7E00014C0027
:100B2000E4FF20B1010F20B0027F0220B2027F0358
:050B300020B3027F0468
:010B3500229D
:050BE600AF4CE4F54CEA
:010BEB0022E7
:1008F400854A4B120B208F4AE54BB40107E54A7039
:1009040003754C01E54BB40207E54A7003754C02CC
:10091400E54BB40307E54A7003754C03E54BB40497
:0809240007E54A7003754C045D
:01092C0022A8
:100B36005389F0438901758A66758CFCC28DD28C07
:050B4600D2AFD2A9228C
:1002C200E4F508F5097590FFC2932097167F14FE96
:1002D20012000E3097FD7F147E0012000E7508008A
:1002E2007509012096177F147E0012000E3096FDCC
:1002F2007F147E0012000E750800750905209517FF
:100302007F147E0012000E3095FD7F147E001200D5
:100312000E7508007509092094177F147E001200DB
:100322000E3094FD7F147E0012000E7508007509D0
:100332000D7590FFC2922097177F147E0012000E57
:100342003097FD7F147E0012000E750800750902B9
:100352002096177F147E0012000E3096FD7F147EC9
:100362000012000E7508007509062095177F147E8D
:100372000012000E3095FD7F147E0012000E7508EB
:100382000075090A2094177F147E0012000E309423
:10039200FD7F147E0012000E75080075090E75901F
:1003A200FFC2912097177F147E0012000E3097FD36
:1003B2007F147E0012000E7508007509032096173F
:1003C2007F147E0012000E3096FD7F147E00120014
:1003D2000E7508007509072095177F147E0012001C
:1003E2000E3095FD7F147E0012000E75080075090F
:1003F2000B2094177F147E0012000E3094FD7F14A0
:100402007E0012000E75080075090F7590FFC290EC
:100412002097177F147E0012000E3097FD7F147E06
:100422000012000E7508007509042096177F147ECD
:100432000012000E3096FD7F147E0012000E750829
:10044200007509082095177F147E0012000E309562
:10045200FD7F147E0012000E75080075090C2094B1
:10046200177F147E0012000E3094FD7F147E00125E
:0C047200000E750800750910AE08AF09F7
:01047E00225B
:100A53008F088C098D0A120BD67FA0120998120BEE
:100A6300A0AF08120998120BA0AF0A120998120B33
:040A7300A0020BDFF3
:0209FC008F0862
:1009FE00120BD67FA0120998120BA0AF08120998FD
:100A0E00120BA0120BD67FA1120998120BA0120A7C
:0D0A1E002C8F097F01120BCC120BDFAF09EA
:010A2B0022A8
:090BD600D2A1D2A0C2A0C2A1224A
:070BDF00C2A0D2A1D2A022A6
:02099800A907AD
:10099A00C2A1E4FBFAAF0374807E00A807088006B0
:1009AA00CEA2E713CE13D8F8FFE9FDEF5D24FF923C
:1009BA00A0D2A1C2A10BBB00010AEB64084A70D500
:0109CA00220A
:100A2C00D2A0E4FDFCD2A130A00FAE057480A806C4
:100A3C00088002C313D8FC4207C2A10DBD00010CF3
:060A4C00ED64084C70DFB0
:010A52002281
:0A0BCC00EF24FF92A0D2A1C2A122E3
:0B0BA000D2A0D2A1A2A0E433FFC2A1AA
:010BAB002227
:1006E400020026E493A3F8E493A34003F68001F206
:1006F40008DFF48029E493A3F85407240CC8C33317
:10070400C4540F4420C8834004F456800146F6DFE5
:10071400E4800B0102040810204080900B72E47EF8
:10072400019360BCA3FF543F30E509541FFEE493DA
:10073400A360010ECF54C025E060A840B8E493A3A1
:10074400FAE493A3F8E493A3C8C582C8CAC583CACC
:10075400F0A3C8C582C8CAC583CADFE9DEE780BE84
:010B81000073
:10047F00BB010689828A83E0225002E722BBFE027B
:09048F00E32289828A83E49322AE
:10049800BB010CE58229F582E5833AF583E0225019
:1004A80006E92582F8E622BBFE06E92582F8E22263
:0D04B800E58229F582E5833AF583E493227D
:1004C500BB010689828A83F0225002F722BBFE0116
:0204D500F32210
:1004D700F8BB010DE58229F582E5833AF583E8F05B
:1004E700225006E92582C8F622BBFE05E92582C807
:0204F700F222EF
:1004F900EF8DF0A4A8F0CF8CF0A428CE8DF0A42E17
:02050900FE22D0
:10050B00BC000BBE0029EF8DF084FFADF022E4CCD4
:10051B00F875F008EF2FFFEE33FEEC33FCEE9DEC9D
:10052B00984005FCEE9DFE0FD5F0E9E4CEFD22EDE3
:10053B00F8F5F0EE8420D21CFEADF075F008EF2F2D
:10054B00FFED33FD4007985006D5F0F222C398FD1E
:05055B000FD5F0EA22BB
:0C0BAC00EE30E707C3E49FFFE49EFE224A
:10062A008B158A168917AB15AA16A91712047FFF0C
:10063A00120B5F500D74012517F517E43516F516E0
:10064A0080E4D200AB15AA16A91712047FFF642B07
:10065A006004EFB42D1BAB150517E517AA16700237
:10066A00051614F912047F642D6003D38001C39226
:10067A0000E4F518F519AB15AA16A91712047FFF9D
:10068A00120B915036AB15AA16A91712047FFF3325
:10069A0095E0FEEF24D0FBEE34FFFAAE18AF197CDA
:1006AA00007D0A1204F9EF2BF519EE3AF5187401D8
:1006BA002517F517E43516F51680BB300006AE1877
:0E06CA00AF198009C3E49519FFE49518FE22CC
:0F0B9100EFC394304007EF943A50028001C32223
:100B5F00EFC394094005EF940E4003BF2003D380E9
:030B6F0001C3229D
:00000001FF
