:030000000206B63F
:0C06B600787FE4F6D8FD75814A0206FD4D
:1007DA00202020202020202020202020202020200F
:1007EA0020002D502D002020202020002D00202028
:1007FA00202020202020002D532D002020202020E2
:0A080A0020002020202020202000E4
:0C0B3300012E00013B00013A00012700E8
:10002600E4FF12098F8F3C120A96120B0C120AF784
:10003600120BA78F2F1202C28F28AF3CEF3395E029
:10004600FE120B6D8F3DE52FB40118E52E70047F6F
:100056000180027F008F2EE52E6005752701800343
:10006600E4F527E52FB4020CE53B70047F0180021E
:100076007F008F3BE52FB40310E53C6464600AE51E
:100086003B6006740A253CF53CE52FB40410E53CBC
:10009600649C600AE53B600674F6253CF53CE52861
:1000A600B40113B2A1E53CFD7C00E4FF120A147F03
:1000B600057E0012000EE528B4020CE52770047FC9
:1000C6000180027F008F27E5276002D292E5277024
:1000D60002C292E52E701A7BFF7A0779DA7D017FDC
:1000E60001120A387BFF7A0779DA7D017F02120A4C
:1000F60038E52E7003020036E53B60030201E27B21
:10010600FF7A0779EC7D017F01120A38D3E53C645A
:100116008094804051E53C64646020E53CFB339567
:10012600E0FA750C027D047F01120A797BFF7A07DB
:1001360079F07D067F01120A388011E53CFB339584
:10014600E0FA750C037D047F01120A79E53C706FB5
:10015600750C01FBFA7D047F01120A797BFF7A0791
:1001660079F07D05803CC3E53C6480948050507BEB
:10017600FF7A0779F67D047F01120A38E53C649C14
:10018600AF3C6025EF3395E0FEC3E49FFBE49EFAA7
:10019600750C027D057F01120A797BFF7A0779F0DB
:1001A6007D077F01120A388016EF3395E0FEC3E41F
:1001B6009FFBE49EFA750C037D057F01120A79E523
:1001C6003C7019750C01FBFA7D047F01120A797BDC
:1001D600FF7A0779F87D057F01120A38E53B70033F
:1001E6000200367BFF7A0879017D017F01120A3809
:1001F600D3E53C648094804030E53C64646010E55F
:100206003A601EE53CFB3395E0FA750C02800EE57C
:100216003A600EE53CFB3395E0FA750C037D0480ED
:100226005C7BFF7A0779F08061C3E53C648094804B
:10023600505F7BFF7A0779F67D047F01120A38E565
:100246003C649C6021E53A6015AF3CEF3395E0FED7
:10025600C3E49FFBE49EFA750C027D05801F7BFFBD
:100266007A0879058024E53A601AAF3CEF3395E0C9
:10027600FEC3E49FFBE49EFA750C037D057F011225
:100286000A79800D7BFF7A08790C7D047F01120ABA
:1002960038E53C6003020036E53A6010750C01E46F
:1002A600FBFA7D047F01120A790200367BFF7A0889
:0C02B600790C7D047F01120A380200362A
:030023000207428F
:10074200C0E0C0F0C083C082C0D075D000C000C07D
:1007520001C002C003C004C005C006C0071209BF21
:100762007B007A007930120AB112078E12095EC23A
:1007720098D007D006D005D004D003D002D001D043
:0C07820000D0D0D082D083D0F0D0E03284
:03000B0002047F6D
:10047F00C0E0C0F0C083C082C0D075D000C000C043
:0D048F0001C002C003C004C005C006C007C4
:10049C000522E522700205210524E52470020523BE
:1004AC000526E52670020525AE25FF7C007D64122D
:1004BC0005B38C258D26758A66758CFCE522641433
:1004CC0045217009120887752100752200C3E524A7
:1004DC0094F4E52394014012E53A70047F01800204
:1004EC007F008F3A752300752400E52E6034E527D4
:1004FC006030C3E53C648094804014C291E526953D
:10050C003DE52594005004D2908017C2908013C210
:10051C0090C3E526953DE52594005004D2918002C8
:02052C00C2917A
:10052E00D007D006D005D004D003D002D001D00021
:0B053E00D0D0D082D083D0F0D0E032CB
:10078E00E4F511F512F511F512AF1274302FF8E6EB
:10079E00B42D0EE5124511600874302FF8E4F68082
:1007AE000E0512E51270020511640A451170DA7B0E
:1007BE00007A0079301206088E298F2A743125129C
:0B07CE00F9E4FAFB1206088E2C8F2DB8
:0107D90022FD
:10095E00AF3CEF3395E0FEEFB52A25EEB52921E544
:10096E003B601DD3E52D9464E52C6480948050107B
:10097E00C3E52D949CE52C6480947F4003852D3C2B
:01098E002246
:10000E00EF1FAC0670011E4C600A7D027CEFDCFE19
:04001E00DDFC80EC99
:0100220022BB
:100A960053877F75985053890F438920758BFD7551
:0B0AA6008DFDC2ABD28ED2AFD2AC22CD
:080003008F993099FDC299228A
:100AB100C2AC1205496010F5993099FDC2997401D3
:0A0AC10029F9E43AFA80EBD2AC22E6
:1009BF007B007A007930E4FFE59912058FE4FEC2DF
:1009CF0098C3EF6480948A50130F740129F9E43AA5
:0D09DF00FA2098E40EEED3948C40F622D35B
:0109EC0022E8
:060B4300C2A58F80D2A7BD
:080B49007F027EEFDEFEDFFCFF
:010B51002281
:0A0B7900C2A6120B43C2A7020B49EB
:100A5B00CFCDCFCECCCE1205B37C007D0A1205B321
:040A6B00ED2430FF47
:0A0A6F00D2A6120B43C2A7020B49E6
:100ACB00AE07BE0104ED148006BE0209ED243F44BF
:060ADB0080FF120B7922DE
:100B0C007F38120B797F0C120B797F06120B797FD1
:040B1C0001020B794E
:0A0B8300AC03120ACBAF04020A6FA4
:060A38008B088A09890AFF
:100A3E00120ACBE4FDAB08AA09A90A8D82758300C0
:0C0A4E00120562FF6006120A6F0D80E9BD
:010A5A002279
:0C08F8007F0AEA24FFFDE434FFFC7E00D0
:080904008E0D8F0E8C0F8D107B
:10090C007F017E00E4FBEBC39510E50F6480F87467
:0E091C008098500AAC0DAD0E1205A10B80E8BC
:01092A0022AA
:040A79008A0A8B0B4F
:100A7D00120ACBAA0CEAD39400400D1208F8AC0A66
:080A8D00AD0B120A5B1A80EDAB
:010A9500223E
:10081400120ACBC3EA64809480400B7F2B120A6FC8
:100824008A1D8B1E800E7F2D120A6FC3E49BF51E5A
:10083400E49AF51DAA1CEAD39400400D1208F8AC02
:090844001DAD1E120A5B1A80EDC5
:01084D002288
:04084E008A408B4110
:10085200120ACBAA42EAD3940040297F101208FA66
:10086200AC40AD41CFCDCFCECCCE1205B3EF540FBD
:10087200FEC3940AEE5004243080022437FF120A89
:040882006F1A80D198
:01088600224F
:0408C0008A458B4694
:1008C400120ACBAA47EAD394004028EA24FFFDE4A5
:1008D40034FFFC7F027E00120904AC45AD46CFCD47
:1008E400CFCECCCE1205B3EF54012430FF120A6FE1
:0308F4001A80D295
:0108F70022DE
:030B3F00014A0068
:100AE100E4FF20B1010F20B0027F0220B2027F0398
:050AF10020B3027F04A8
:010AF60022DD
:050BA700AF4AE4F54A2D
:010BAC002226
:10088700854849120AE18F48E549B40107E54870F0
:1008970003754A01E549B40207E5487003754A0242
:1008A700E549B40307E5487003754A03E549B4040D
:0808B70007E5487003754A04CF
:0108BF002216
:100AF7005389F0438901758A66758CFCC28DD28C47
:050B0700D2AFD2A922CB
:1002C200E4F508F5097590FFC2932097167F14FE96
:1002D20012000E3097FD7F147E0012000E7508008A
:1002E2007509012096177F147E0012000E3096FDCC
:1002F2007F147E0012000E750800750905209517FF
:100302007F147E0012000E3095FD7F147E001200D5
:100312000E7508007509092094177F147E001200DB
:100322000E3094FD7F147E0012000E7508007509D0
:100332000D7590FFC2922097177F147E0012000E57
:100342003097FD7F147E0012000E750800750902B9
:100352002096177F147E0012000E3096FD7F147EC9
:100362000012000E7508007509062095177F147E8D
:100372000012000E3095FD7F147E0012000E7508EB
:100382000075090A2094177F147E0012000E309423
:10039200FD7F147E0012000E75080075090E75901F
:1003A200FFC2912097177F147E0012000E3097FD36
:1003B2007F147E0012000E7508007509032096173F
:1003C2007F147E0012000E3096FD7F147E00120014
:1003D2000E7508007509072095177F147E0012001C
:1003E2000E3095FD7F147E0012000E75080075090F
:1003F2000B2094177F147E0012000E3094FD7F14A0
:100402007E0012000E75080075090F7590FFC290EC
:100412002097177F147E0012000E3097FD7F147E06
:100422000012000E7508007509042096177F147ECD
:100432000012000E3096FD7F147E0012000E750829
:10044200007509082095177F147E0012000E309562
:10045200FD7F147E0012000E75080075090C2094B1
:10046200177F147E0012000E3094FD7F147E00125E
:0C047200000E750800750910AE08AF09F7
:01047E00225B
:100A14008F088C098D0A120B977FA012092B120BD9
:100A240061AF0812092B120B61AF0A12092B120BCA
:040A340061020BA0B0
:02098F008F08CF
:10099100120B977FA012092B120B61AF0812092BC2
:1009A100120B61120B977FA112092B120B61120915
:0D09B100ED8F097F01120B8D120BA0AF0915
:0109BE002216
:090B9700D2A1D2A0C2A0C2A12289
:070BA000C2A0D2A1D2A022E5
:02092B00A9071A
:10092D00C2A1E4FBFAAF0374807E00A8070880061D
:10093D00CEA2E713CE13D8F8FFE9FDEF5D24FF92A9
:10094D00A0D2A1C2A10BBB00010AEB64084A70D56D
:01095D002277
:1009ED00D2A0E4FDFCD2A130A00FAE057480A80604
:1009FD00088002C313D8FC4207C2A10DBD00010C33
:060A0D00ED64084C70DFEF
:010A130022C0
:0A0B8D00EF24FF92A0D2A1C2A12222
:0B0B6100D2A0D2A1A2A0E433FFC2A1E9
:010B6C002266
:1006C200020026E493A3F8E493A34003F68001F228
:1006D20008DFF48029E493A3F85407240CC8C33339
:1006E200C4540F4420C8834004F456800146F6DF08
:1006F200E4800B0102040810204080900B33E47E5A
:10070200019360BCA3FF543F30E509541FFEE493FC
:10071200A360010ECF54C025E060A840B8E493A3C3
:10072200FAE493A3F8E493A3C8C582C8CAC583CAEE
:10073200F0A3C8C582C8CAC583CADFE9DEE780BEA6
:010B420000B2
:10054900BB010689828A83E0225002E722BBFE02B0
:09055900E32289828A83E49322E3
:10056200BB010CE58229F582E5833AF583E022504E
:1005720006E92582F8E622BBFE06E92582F8E22298
:0D058200E58229F582E5833AF583E49322B2
:10058F00BB010689828A83F0225002F722BBFE014B
:02059F00F32245
:1005A100EF8DF0A4A8F0CF8CF0A428CE8DF0A42E6E
:0205B100FE2228
:1005B300BC000BBE0029EF8DF084FFADF022E4CC2C
:1005C300F875F008EF2FFFEE33FEEC33FCEE9DECF5
:1005D300984005FCEE9DFE0FD5F0E9E4CEFD22ED3B
:1005E300F8F5F0EE8420D21CFEADF075F008EF2F85
:1005F300FFED33FD4007985006D5F0F222C398FD76
:050603000FD5F0EA2212
:0C0B6D00EE30E707C3E49FFFE49EFE2289
:100608008B138A148915AB13AA14A915120549FF6F
:10061800120B20500D74012515F515E43514F51449
:1006280080E4D200AB13AA14A915120549FF642B64
:100638006004EFB42D1BAB130515E515AA14700261
:10064800051414F9120549642D6003D38001C3927F
:1006580000E4F516F517AB13AA14A915120549FFFE
:10066800120B525036AB13AA14A915120549FF33C1
:1006780095E0FEEF24D0FBEE34FFFAAE16AF177C00
:10068800007D0A1205A1EF2BF517EE3AF516740155
:100698002515F515E43514F51480BB300006AE16A3
:0E06A800AF178009C3E49517FFE49516FE22F4
:0F0B5200EFC394304007EF943A50028001C32262
:100B2000EFC394094005EF940E4003BF2003D38028
:030B300001C322DC
:00000001FF
