:030000000206985D
:0C069800787FE4F6D8FD7581440206DF8F
:10080C00011B17011E3B011A3B011F0003170000BF
:0B081C0000012400012500021C000068
:10000E00D2A01209A37FE87E0312096712097C129F
:10001E00093B1200038F29E529B4012BE524700D4D
:10002E00051FE51F75F00312038785F01FE5246099
:10003E00160516E51670020515AE15FF7C007D033C
:10004E001203A98C158D16E52964047034E524601D
:10005E001EE4F525E51F700985261B85271E8528BC
:10006E001AE51FB40109852617852718852819E575
:10007E001F6402600CE52470047F0180027F008FF4
:10008E0024E51F7070E524706CE51B75F00A84FD85
:10009E007C00E4FF1209B0E51B75F00A84E5F0FD63
:1000AE007C007F011209B07D0B7C007F021209B02B
:1000BE00E51E75F00A84FD7C007F031209B0E51E73
:1000CE0075F00A84E5F0FD7C007F041209B07D0B0B
:1000DE007C007F051209B0E51A75F00A84FD7C00DC
:1000EE007F061209B0E51A75F00A84E5F0FD7C0072
:1000FE007F071209B0E51F64017070E524706CE58E
:10010E001775F00A84FD7C00E4FF1209B0E517753F
:10011E00F00A84E5F0FD7C007F011209B07D0B7CB6
:10012E00007F021209B0E51875F00A84FD7C007F8D
:10013E00031209B0E51875F00A84E5F0FD7C007F26
:10014E00041209B07D0B7C007F051209B0E519750C
:10015E00F00A84FD7C007F061209B0E51975F00ADD
:10016E0084E5F0FD7C007F071209B0E51F64027084
:10017E00667D0AFCFF1209B07D0A7C007F01120920
:10018E00B07D0A7C007F021209B07D0A7C007F03DD
:10019E001209B07D0A7C007F041209B0AF23AE2293
:1001AE00AD21AC201203067C007D0A1203A9AC0619
:1001BE00AD077F051209B0AF23AE22AD21AC2012E0
:1001CE0003067C007D0A1203A97F061209B07D0C7E
:1001DE007C007F071209B0E524700302001DE51FA5
:1001EE007016E525700C851B26851E27851A287529
:1001FE00250112092412078AE51F6401600302001B
:10020E001DE525700C851726851827851928752557
:0A021E000112092412078A02001DD4
:10092400E529B4020674262516F806E529B403065B
:0709340074262516F81622B7
:10093B00E51BB51710E51EB5180BE51AB5190675AD
:06094B001C00751D0122D5
:10044200E524700302059DE5164515706AE508600E
:100452000F7D0A7C00E4FF1209B07D0A7C00805205
:10046200E51F7027E52675F00A120387FD3395E034
:10047200FCE4FF1209B0E52675F00A120387AFF01B
:10048200EFFD3395E0FC7F011209B0E51FB40127AF
:10049200E52675F00A120387FD3395E0FCE4FF12AE
:1004A20009B0E52675F00A120387AFF0EFFD339528
:1004B200E0FC7F011209B0E51664014515706AE59A
:1004C20008600F7D0A7C007F031209B07D0A7C0060
:1004D2008052E51F7027E52775F00A120387FD3366
:1004E20095E0FC7F031209B0E52775F00A12038735
:1004F200AFF0EFFD3395E0FC7F041209B0E51FB4C5
:100502000127E52775F00A120387FD3395E0FC7F8A
:10051200031209B0E52775F00A120387AFF0EFFD69
:100522003395E0FC7F041209B0E5166402451570AC
:100532006AE508600F7D0A7C007F061209B07D0A19
:100542007C008052E51F7027E52875F00A120387A8
:10055200FD3395E0FC7F061209B0E52875F00A121A
:100562000387AFF0EFFD3395E0FC7F071209B0E59A
:100572001FB40127E52875F00A120387FD3395E0C1
:10058200FC7F061209B0E52875F00A120387AFF066
:10059200EFFD3395E0FC7F071209B0E50870047F98
:0705A2000180027F008F08B9
:0105A900222F
:10078A00C3E526648094984003E4F526C3E526640D
:10079A008094805003752617C3E527648094BB4074
:1007AA0003E4F527C3E52764809480500375273B4B
:1007BA00C3E528648094BB4003E4F528C3E52864B4
:0907CA00809480500375283B2245
:10089900051AE51AC3943C4019E4F51A051EE51E2C
:1008A900943C400EE4F51E051BE51B94184003E437
:0308B900F51B220A
:03000B000205AA41
:1005AA00C0E0C0F0C083C082C0D075D000C000C017
:0D05BA0001C002C003C004C005C006C00798
:1005C700050AE50A70020509050CE50C7002050B22
:1005D700050EE50E7002050D0510E5107002050FFA
:1005E7000512E51270020511758A66758CFCE50A1D
:1005F7006414450970091207D3750900750A00C309
:10060700E50C9402E50B94004009750B00750C008E
:10061700120870C3E50E94E8E50D9403401712091C
:10062700A31208448F238E228D218C2012089975DE
:100637000D00750E00E510B4F40EE50FB4010912B4
:100647000442750F00751000E51264C84511702645
:10065700E51D451C600AB2A00514E51470020513D8
:10066700E514640A45137008F51CF51DF513F51418
:0606770075110075120070
:10067D00D007D006D005D004D003D002D001D000D1
:0B068D00D0D0D082D083D0F0D0E0327B
:10096700EF1FAC0670011E4C600A7D027CEFDCFEB7
:04097700DDFC80EC37
:01097B002259
:10082700082C0A0A0A0A0A0A0A0A0D343F065B4F0D
:09083700666D7D077F6F004039FA
:0909B000AE05742C2FF8A60622F6
:10072400E4F580EF14B40800505490073C75F003CE
:10073400A4C58325F0C58373020754020758020732
:100744005C02076002076402076C02077402077CFC
:10075400D2A4800ED2A48012D2A48016D2A4801A6D
:10076400C2A4D2A3D2A28016C2A4D2A3C2A2800ED3
:10077400C2A4C2A3D2A28006C2A4C2A3C2A27434D9
:060784002DF8E6F58022CD
:10087000AE2BEE04FF742C2EF8E6FD7C001207244C
:10088000052BE52B7002052AC39408E52A648094A1
:08089000804005E4F52AF52B78
:01089800223D
:10097C005389F0438901758A66758CFCC28DD28CC3
:05098C00D2AFD2A92248
:0308400001430071
:10095100E4FF20B1010F20B0027F0220B2027F0329
:0509610020B3027F0439
:01096600226E
:05000300AF43E4F543EA
:0100080022D5
:1007D3008541421209518F41E542B40107E5417059
:1007E30003754301E542B40207E541700375430213
:1007F300E542B40307E5417003754303E542B404DE
:0808030007E541700375430491
:01080B0022CA
:0D09A3001208D97FCC1208F37F440208F33C
:100844001208D97FCC1208F37FBE1208F31208BC39
:100854008F441208BCEFFEE544FFFDAC06EC120227
:0B086400CDE4FBFA7980784112022BF2
:01086F002266
:1008D900D2B7C2B77FF7DFFED2B77F20DFFEA2B75C
:0908E900E433FE7FF7DFFEAF06E9
:0108F20022E3
:10099100C2B77E04DEFEEF24FF92B77E18DEFED2E0
:0109A100B79E
:0109A2002232
:10090C00C2B77F02DFFED2B77F02DFFEA2B7E433AD
:07091C00FE7F18DFFEAF06AD
:0109230022B1
:0208F300AD074F
:1008F500E4FC7401A804088002C333D8FC5DFF1230
:0609050009910CBC08EC96
:01090B0022C9
:1008BC00E4FDFC12090CEF600D7401A80408800221
:0C08CC00C333D8FC42050CBC08E9AF05A2
:0108D80022FD
:1002280002037CEC5D046005E85904700302037264
:1002380012033D580460F6EC4860F2EC7004FDFED1
:10024800FF22C860DB2481C85009C39860025006A9
:100258000203799850CAF582E9294B4A7005AB82A6
:1002680002036875F0007C1A7880C3EF9BEE9AED64
:1002780099400DC3EF9BFFEE9AFEED99FDE842F021
:10028800DC23ACF0D0E0FFD0E0FED0E0FDAB822074
:10029800E7101BEB60BAEC2CFCEF33FFEE33FEEDFE
:1002A80033FD020354E803F830E705C0F075F000A9
:1002B800EF2FFFEE33FEED33FD40B830E7C280AAE2
:1002C80075F020800E75F010800575F0087D007EB1
:1002D800007F003392D530D5031203DFEC33401092
:1002E800EF33FFEE33FEED33FDEC33FCD5F0ED22BA
:0E02F800E5F0247EA2D513CC92E7CDCEFF22F6
:10030600EDD2E7CD33EC3392D524814006E4FFFEEF
:10031600FDFC22FCE4CFCECDCC24E0501174FF804E
:10032600EDC3CC13CCCD13CDCE13CECF13CF0470EB
:07033600F030D5DE0203DF09
:10033D00E9D2E7C933E833F892D5EDD2E7CD33EC06
:07034D0033FC5002B2D5227F
:10035400EC30E7100FBF000C0EBE00080DBD00040A
:100364000BEB6014A2D5EB13FCED92E7FD2274FFB6
:10037400FCFDFEFF22E480F8A2D574FF13FC7D800F
:03038400E480EF23
:1006A40002000EE493A3F8E493A34003F68001F25E
:1006B40008DFF48029E493A3F85407240CC8C33357
:1006C400C4540F4420C8834004F456800146F6DF26
:1006D400E4800B010204081020408090080CE47EA2
:1006E400019360BCA3FF543F30E509541FFEE4931B
:1006F400A360010ECF54C025E060A840B8E493A3E2
:10070400FAE493A3F8E493A3C8C582C8CAC583CA0C
:10071400F0A3C8C582C8CAC583CADFE9DEE780BEC4
:0108430000B4
:10038700C2D530F707B2D563F0FF05F030E70CB2FE
:10039700D5F4048463F0FF05F080018430D502F4BE
:0203A70004222E
:1003A900C2D5EC30E709B2D5E4C39DFDE49CFCEE6F
:1003B90030E715B2D5E4C39FFFE49EFE1203EDC3F7
:1003C900E49DFDE49CFC80031203ED30D507C3E4F2
:0603D9009FFFE49EFE22DE
:0E03DF00C3E49FFFE49EFEE49DFDE49CFC222F
:1003ED00BC000BBE0029EF8DF084FFADF022E4CCF4
:1003FD00F875F008EF2FFFEE33FEEC33FCEE9DECBD
:10040D00984005FCEE9DFE0FD5F0E9E4CEFD22ED02
:10041D00F8F5F0EE8420D21CFEADF075F008EF2F4C
:10042D00FFED33FD4007985006D5F0F222C398FD3D
:05043D000FD5F0EA22DA
:00000001FF
