:0B091900020D000002110000010A00A6
:1006D500120A00E4F50BF50C120A6B7511008F1266
:1006E500E512640145117005050A530A03E50A146C
:1006F500601114601614601B2403701DE4F50FF5DA
:10070500108016750F00751032800E750F0075106C
:100715004B8006750F00751064E50AFD7C007F01AE
:0507250012060C80B378
:03000B00020514D7
:10051400C0E0C0F0C083C082C0D075D000C000C0AD
:0D05240001C002C003C004C005C006C0072E
:100531000509E50970020508758A66758CFCE509EF
:100541006414450870091207EB7508007509000568
:100551000CE50C7002050BAE0BFF7C007D641203F1
:10056100A68C0B8D0CC3E50C9510E50B950F500275
:0F057100D290C3E50C9510E50B950F4002C29098
:10058000D007D006D005D004D003D002D001D000CF
:0B059000D0D0D082D083D0F0D0E03279
:060A2900C2A58F80D2A7D8
:080A2F007F027EEFDEFEDFFC1A
:010A3700229C
:0A0A4400C2A6120A29C2A7020A2F57
:10098400CFCDCFCECCCE1203A67C007D0A1203A617
:04099400ED2430FF1F
:0A099800D2A6120A29C2A7020A2FF4
:1009BF00AE07BE0104ED148006BE0209ED243F44CC
:0609CF0080FF120A442221
:100A15007F38120A447F0C120A447F06120A447F6B
:040A250001020A447C
:0A0A4E00AC031209BFAF04020998BF
:060961008B3E8A3F894035
:100967001209BFE4FDAB3EAA3FA9408D8275830003
:0C097700120367FF60061209980D80E96A
:010983002251
:0C085C007F0AEA24FFFDE434FFFC7E006C
:080868008E3A8F3B8C3C8D3D64
:100870007F017E00E4FBEBC3953DE53C6480F874AA
:0E0880008098500AAC3AAD3B1203940B80E80E
:01088E002247
:0409A2008A2D8B2EE1
:1009A6001209BFAA2FEAD39400400D12085CAC2DA1
:0809B600AD2E1209841A80ED38
:0109BE002216
:100778001209BFC3EA64809480400B7F2B1209984A
:100788008A228B23800E7F2D120998C3E49BF523C0
:10079800E49AF522AA21EAD39400400D12085CAC31
:0907A80022AD231209841A80ED30
:0107B1002225
:0407B2008A328B33C9
:1007B6001209BFAA34EAD3940040297F1012085EBA
:1007C600AC32AD33CFCDCFCECCCE1203A6EF540F85
:1007D600FEC3940AEE5004243080022437FF120927
:0407E600981A80D10C
:0107EA0022EC
:040824008A378B384C
:100828001209BFAA39EAD394004028EA24FFFDE45C
:1008380034FFFC7F027E00120868AC37AD38CFCD9C
:10084800CFCECCCE1203A6EF54012430FF12099864
:030858001A80D231
:01085B00227A
:1009EB00EF1FAC0670011E4C600A7D027CEFDCFE33
:0409FB00DDFC80ECB3
:0109FF0022D5
:10000E00E4F547F5487590FFC2932097167F14FECE
:10001E001209EB3097FD7F147E001209EB75470035
:10002E007548012096177F147E001209EB3096FD5D
:10003E007F147E001209EB75470075480520951751
:10004E007F147E001209EB3095FD7F147E0012099D
:10005E00EB7547007548092094177F147E0012092E
:10006E00EB3094FD7F147E001209EB754700754846
:10007E000D7590FFC2922097177F147E001209EB28
:10008E003097FD7F147E001209EB7547007548020C
:10009E002096177F147E001209EB3096FD7F147E9A
:1000AE00001209EB7547007548062095177F147EE0
:1000BE00001209EB3095FD7F147E001209EB754797
:1000CE000075480A2094177F147E001209EB3094B5
:1000DE00FD7F147E001209EB75470075480E759072
:1000EE00FFC2912097177F147E001209EB3097FD07
:1000FE007F147E001209EB75470075480320961792
:10010E007F147E001209EB3096FD7F147E001209DB
:10011E00EB7547007548072095177F147E0012096E
:10012E00EB3095FD7F147E001209EB754700754884
:10013E000B2094177F147E001209EB3094FD7F1470
:10014E007E001209EB75470075480F7590FFC2903F
:10015E002097177F147E001209EB3097FD7F147ED7
:10016E00001209EB7547007548042096177F147E20
:10017E00001209EB3096FD7F147E001209EB7547D5
:10018E00007548082095177F147E001209EB3095F4
:10019E00FD7F147E001209EB75470075480C209404
:1001AE00177F147E001209EB3094FD7F147E00122F
:0C01BE0009EB754700754810AE47AF48CC
:0101CA002212
:100A00005389F0438901758A66758CFCC28DD28C3E
:050A1000D2AFD2A922C3
:10059B00E4F549F54A20B1167F14FE1209EB30B190
:1005AB00FD7F147E001209EB754900754A0120B0DE
:1005BB00177F147E001209EB30B0FD7F147E001202
:1005CB0009EB754900754A0220B2177F147E0012A1
:1005DB0009EB30B2FD7F147E001209EB75490075F3
:1005EB004A0320B3177F147E001209EB30B3FD7F53
:1005FB00147E001209EB754900754A04AE49AF4AE7
:01060B0022CC
:090924000724170B0C15313707ED
:050A7100C2B5C2B6226F
:050679002DFDEE3CFC2C
:06067E008C4B8D4CAB0714
:10068400D2B5E4FD74017E00A805088005C333CE0D
:1006940033CED8F9FFEBF582EF558224FF92B4D222
:1006A400B6C2B60DBD08DDE4FD74017E00A80508E0
:1006B4008005C333CE33CED8F9FFE54B5EFEE54C5F
:1006C4005F4E24FF92B4D2B6C2B60DBD08DBC2B5EC
:0106D4002203
:02072A00AD0719
:10072C00E4F9430501D2B5FB74017E00A8030880EF
:10073C0005C333CE33CED8F9FFEDF582EF558224C5
:10074C00FF92B4C2B6D2B60BBB08DDE4FBD2B6C284
:10075C00B630B40D7401A803088002C333D8FC4230
:0B076C00010BBB08E8C2B5C2B4AF012E
:01077700225F
:1001CB00E4FDFC7F8E12067EE52475F00A120345D2
:1001DB00FF3395E0FEEFC4F8540FC868FFEEC4542C
:1001EB00F048FEE52475F00A120345ADF0ED3395AA
:1001FB00E0FCEF7F8C120679E52575F00A120345BA
:10020B00FF3395E0FEEFC4F8540FC868FFEEC454FB
:10021B00F048FEE52575F00A120345ADF0ED339578
:10022B00E0FCEF7F88120679E52675F00A1203458C
:10023B00FF3395E0FEEFC4F8540FC868FFEEC454CB
:10024B00F048FEE52675F00A120345ADF0ED339547
:10025B00E0FCEF2DFDEE3CFC7F8612067EE527755C
:10026B00F00A120345FF3395E0FEEFC4F8540FC8B4
:10027B0068FFEEC454F048FEE52775F00A120345FB
:10028B00ADF0ED3395E0FCEF2DFDEE3CFC7F8412E1
:10029B00067EE52875F00A120345FF3395E0FEEF65
:1002AB00C4F8540FC868FFEEC454F048FEE5287537
:1002BB00F00A120345ADF0ED3395E0FCEF2DFDEEAA
:1002CB003CFC7F8212067EE52975F00A120345FF7E
:1002DB003395E0FEEFC4F8540FC868FFEEC454F03A
:1002EB0048FEE52975F00A120345ADF0ED3395E0B4
:1002FB00FCEF2DFDEE3CFC7F8012067EE52A75F0AF
:10030B000A120345FF3395E0FEEFC4F8540FC8689B
:10031B00FFEEC454F048FEE52A75F00A120345AD12
:10032B00F0ED3395E0FCEF2DFDEE3CFC7F8A1206E1
:0A033B007E7D807C007F8E02067E2E
:1003FB007F8C12072AEFC4540F75F00AA4FEEF543A
:10040B000F2EF5247F8812072AEFC4540F75F00ABC
:10041B00A4FEEF540F2EF5257F8612072AEFC45446
:10042B000F75F00AA4FEEF540F2EF5267F841207EA
:10043B002AEFC4540F75F00AA4FEEF540F2EF527C4
:10044B007F8212072AEFC4540F75F00AA4FEEF54F3
:10045B000F2EF5287F8012072AEFC4540F75F00A70
:10046B00A4FEEF540F2EF5297F8A12072AEFC454EE
:0C047B000F75F00AA4FEEF540F2EF52AB6
:010487002252
:0C092D000A133F065B4F666D7D077F6F6D
:10060C00EF14B40800505490062175F003A4C58370
:10061C0025F0C5837302063902063D020641020627
:10062C0045020649020651020659020661D2A4800F
:10063C000ED2A48012D2A48016D2A4801AC2A4D244
:10064C00A3D2A28016C2A4D2A3C2A2800EC2A4C2FC
:10065C00A3D2A28006C2A4C2A3C2A274132DF8E630
:0D066C00F5807F017E001209EBE4F580228D
:090A6200D2A1D2A0C2A0C2A122BF
:07000300C2A0D2A1D2A0228D
:02088F00A907B7
:10089100C2A1E4FBFAAF0374807E00A807088006BA
:1008A100CEA2E713CE13D8F8FFE9FDEF5D24FF9246
:1008B100A0D2A1C2A10BBB00010AEB64084A70D50A
:0108C1002214
:1008F200D2A0E4FDFCD2A130A00FAE057480A80600
:10090200088002C313D8FC4207C2A10DBD00010C2E
:06091200ED64084C70DFEB
:0109180022BC
:0A0A5800EF24FF92A0D2A1C2A12258
:0B0A3800D2A0D2A1A2A0E433FFC2A113
:010A43002290
:10093D008F418C428D43120A627FA012088F120ADA
:10094D0038AF4112088F120A38AF4312088F120ABE
:04095D003802000359
:0208C2008F4D58
:1008C400120A627FA012088F120A38AF4D12088FE5
:1008D400120A38120A627FA112088F120A3812080B
:0D08E400F28F4E7F01120A58120003AF4E32
:0108F10022E4
:0309390001460074
:1009D500E4FF20B1010F20B0027F0220B2027F03A5
:0509E50020B3027F04B5
:0109EA0022EA
:050A6B00AF46E4F54672
:010A70002263
:1007EB008544451209D58F44E545B40107E54470AE
:1007FB0003754601E545B40207E5447003754602EF
:10080B00E545B40307E5447003754603E545B404B9
:08081B0007E544700375460473
:0108230022B2
:030000000204886F
:0C048800787FE4F6D8FD75814E0204CFA9
:10034500C2D530F707B2D563F0FF05F030E70CB240
:10035500D5F4048463F0FF05F080018430D502F400
:02036500042270
:10036700BB010CE58229F582E5833AF583E022504B
:1003770006E92582F8E622BBFE06E92582F8E22295
:0D038700E58229F582E5833AF583E49322AF
:10039400EF8DF0A4A8F0CF8CF0A428CE8DF0A42E7D
:0203A400FE2237
:1003A600BC000BBE0029EF8DF084FFADF022E4CC3B
:1003B600F875F008EF2FFFEE33FEEC33FCEE9DEC04
:1003C600984005FCEE9DFE0FD5F0E9E4CEFD22ED4A
:1003D600F8F5F0EE8420D21CFEADF075F008EF2F94
:1003E600FFED33FD4007985006D5F0F222C398FD85
:0503F6000FD5F0EA2222
:100494000206D5E493A3F8E493A34003F68001F2A3
:1004A40008DFF48029E493A3F85407240CC8C33369
:1004B400C4540F4420C8834004F456800146F6DF38
:1004C400E4800B0102040810204080900919E47EA6
:1004D400019360BCA3FF543F30E509541FFEE4932D
:1004E400A360010ECF54C025E060A840B8E493A3F4
:1004F400FAE493A3F8E493A3C8C582C8CAC583CA1F
:10050400F0A3C8C582C8CAC583CADFE9DEE780BED6
:01093C0000BA
:00000001FF
