:0300000002000EED
:0C000E00787FE4F6D8FD758109020055EA
:1001290053890F438910758B33758DFEC28FD28E1B
:05013900D2AFD2AB22A1
:03000300010900F0
:0300D5007F64FE47
:1000D800D3EF9400EE940040217D667C007B037A88
:1000E80000EB1B70011AEB4A70F7ED1D70011CED57
:0A00F8004C70EAEF1F70D91E80D68D
:0101020022DA
:10015300758901D2AFD2A9758CFE758A33D28C22F0
:10009A00120153E4F5097508011200D5E4F5097552
:1000AA0008021200D5E4F5097508037F64FE120000
:1000BA00D8E4F5097508047F64FE1200D8E4F5094E
:0B00CA007508057F64FE1200D880C896
:03000B00020103EC
:10010300C0E0C0D0758CFE758A33E509D3950850DD
:1001130004D2A38002C2A3E509B42803750900052C
:0601230009D0D0D0E0324B
:10013E00EF1FAC0670011E4C600A7D027CEFDCFEE8
:04014E00DDFC80EC68
:01015200228A
:10001A0002009AE493A3F8E493A34003F68001F262
:10002A0008DFF48029E493A3F85407240CC8C333E7
:10003A00C4540F4420C8834004F456800146F6DFB6
:10004A00E4800B0102040810204080900003E47E43
:10005A00019360BCA3FF543F30E509541FFEE493AB
:10006A00A360010ECF54C025E060A840B8E493A372
:10007A00FAE493A3F8E493A3C8C582C8CAC583CA9D
:10008A00F0A3C8C582C8CAC583CADFE9DEE780BE55
:0100060000F9
:00000001FF
