:030000000200EC0F
:0C00EC00787FE4F6D8FD75811502013321
:06000300011000011100D4
:10025700120272750C00750D3C750E00750F37E4B0
:0B026700F590D297D29612000E80FB9B
:03000B0002017877
:10017800C0E0C0F0C0D075D000C000C004C005C049
:0301880006C007A7
:10018B000509E50970020508AE08FF7C007D6412C5
:10019B0002028C088D090509E50970020508AE08F5
:1001AB00FF7C007D641202028C088D09758A6675CE
:1001BB008CFCD3E50D9509E50C95085002C297D33D
:1001CB00E50D9509E50C95084002D297D3E50F95FF
:1001DB0009E50E95085002C296D3E50F9509E50E79
:0601EB0095084002D296C7
:1001F100D007D006D005D004D000D0D0D0F0D0E0C8
:0102010032CA
:100272005389F0438901758A66758CFCC28DD28CD4
:05028200D2AFD2A92259
:10031A00C295C293C294C292E4F50CF50DF50EF59E
:02032A000F22A0
:10028700D295D293C294C292750C00750D14750E57
:0502970000750F1A22A2
:10029C00D295D293C294C292750C00750D0F750E47
:0502AC0000750F1E2289
:1002B100D295D293C294C292750C00750D18750E29
:0502C10000750F15227D
:1002C600D295D293C294C292750C00750D09750E23
:0502D60000750F1A2263
:1002DB00D295D293C294C292750C00750D09750E0E
:0502EB0000750F122256
:1002F000D295D293C294C292750C00750D0F750EF3
:0503000000750F06224C
:10000E0020A00C20A10920A20620A30312031A206F
:10001E00A00C30A10930A20620A30312028720A053
:10002E002920A12630A22320A3201202B17F047E14
:10003E000012030520A01320A11020A20D20A30A58
:10004E0012029C7F327E0012030520A02930A126C9
:10005E0020A22320A32012029C7F047E00120305FF
:10006E0020A01320A11020A20D20A30A1202B17FFE
:10007E00327E0012030530A00930A10630A20330F3
:10008E00A30C30A05830A15520A25220A34F12022B
:10009E00877F327E0012030520A04220A13F20A2BE
:1000AE003C20A33912031A7FC87E001203051202E8
:1000BE00C620A0FD30A1FA20A2F720A3F47FC87EAF
:1000CE00001203051202F020A0FD30A1FA30A2F7B3
:0E00DE0020A3F41202DB7F207E031203052212
:10030500EF1FAC0670011E4C600A7D027CEFDCFE1F
:04031500DDFC80EC9F
:0103190022C1
:1000F800020257E493A3F8E493A34003F68001F2C5
:1001080008DFF48029E493A3F85407240CC8C33308
:10011800C4540F4420C8834004F456800146F6DFD7
:10012800E4800B0102040810204080900003E47E64
:10013800019360BCA3FF543F30E509541FFEE493CC
:10014800A360010ECF54C025E060A840B8E493A393
:10015800FAE493A3F8E493A3C8C582C8CAC583CABE
:10016800F0A3C8C582C8CAC583CADFE9DEE780BE76
:0100090000F6
:10020200BC000BBE0029EF8DF084FFADF022E4CCE0
:10021200F875F008EF2FFFEE33FEEC33FCEE9DECA9
:10022200984005FCEE9DFE0FD5F0E9E4CEFD22EDEF
:10023200F8F5F0EE8420D21CFEADF075F008EF2F39
:10024200FFED33FD4007985006D5F0F222C398FD2A
:050252000FD5F0EA22C7
:00000001FF
