:1009860052656164204F4B0020202020202020202B
:0B09960020005772697465204F4B0071
:0C092900022B0000022D0000022900003B
:10033A001209E11205F68E2D8F2EE52E6401452D48
:10034A007015052AE52A70020529751605FBAA29E2
:10035A007D017F02120969E52E6402452D7016E5BA
:10036A002A152A70021529751605AB2AAA297D01B4
:10037A007F02120969E52E6404452D7042FF1208B6
:10038A008B7529008F2A7F0112088BEFFEEE422916
:10039A00751605AB2AAA297D017F021209697BFF1E
:1003AA007A0979867D017F011209067FE87E0312A8
:1003BA0009B77BFF7A09798E7D017F01120906E56B
:1003CA002E6403452D600302033D751605AB2AAA68
:1003DA00297D017F021209697C00AD2AE4FF120817
:1003EA00E27F057E001209B7E529FD7C007F011234
:1003FA0008E27F057E001209B77BFF7A0979987DAA
:10040A00017F011209067FE87E031209B77BFF7A92
:0D041A0009798E7D017F0112090602033D64
:0609F500C2A58F80D2A70D
:0809FB007F027EEFDEFEDFFC4F
:010A030022D0
:0A0A1000C2A61209F5C2A70209FBF5
:10094B00CFCDCFCECCCE1204887C007D0A1204888A
:04095B00ED2430FF58
:0A095F00D2A61209F5C2A70209FB97
:1009A100AE07BE0104ED148006BE0209ED243F44EA
:0609B10080FF120A102273
:1009E1007F38120A107F0C120A107F06120A107F3C
:0409F10001020A10E5
:0A0A1A00AC031209A1AF0402095F4A
:060906008B128A13891414
:10090C001209A1E4FDAB12AA13A9148D8275830000
:0C091C00120449FF600612095F0D80E91B
:0109280022AC
:0C0825007F0AEA24FFFDE434FFFC7E00A3
:080831008E178F188C198D1A27
:100839007F017E00E4FBEBC3951AE5196480F87427
:0E0849008098500AAC17AD181204760B80E8A8
:01085700227E
:040969008A148B154C
:10096D001209A1AA16EAD39400400D120825AC1461
:08097D00AD1512094B1A80EDC3
:01098500224F
:10077A001209A1C3EA64809480400B7F2B12095F9F
:10078A008A208B21800E7F2D12095FC3E49BF521FD
:10079A00E49AF520AA1FEAD39400400D120825AC6A
:0907AA0020AD2112094B1A80ED6B
:0107B3002223
:0407B4008A318B32C9
:1007B8001209A1AA33EAD3940040297F101208270E
:1007C800AC31AD32CFCDCFCECCCE120488EF540FA2
:1007D800FEC3940AEE5004243080022437FF120925
:0407E8005F1A80D143
:0107EC0022EA
:0407ED008A368B3786
:1007F1001209A1AA38EAD394004028EA24FFFDE4B3
:1008010034FFFC7F027E00120831AC36AD37CFCD0C
:10081100CFCECCCE120488EF54012430FF12095FF1
:030821001A80D268
:0108240022B1
:1009B700EF1FAC0670011E4C600A7D027CEFDCFE67
:0409C700DDFC80ECE7
:0109CB002209
:10000300E4F539F53A7590FFC2932097167F14FEF5
:100013001209B73097FD7F147E001209B7753900B6
:10002300753A012096177F147E001209B73096FDAA
:100033007F147E001209B7753900753A05209517AC
:100043007F147E001209B73095FD7F147E001209DC
:10005300B7753900753A092094177F147E00120989
:10006300B73094FD7F147E001209B7753900753AD5
:100073000D7590FFC2922097177F147E001209B767
:100083003097FD7F147E001209B7753900753A0267
:100093002096177F147E001209B73096FD7F147ED9
:1000A300001209B7753900753A062095177F147E3B
:1000B300001209B73095FD7F147E001209B7753918
:1000C30000753A0A2094177F147E001209B7309402
:1000D300FD7F147E001209B7753900753A0E7590CD
:1000E300FFC2912097177F147E001209B73097FD46
:1000F3007F147E001209B7753900753A03209617ED
:100103007F147E001209B73096FD7F147E0012091A
:10011300B7753900753A072095177F147E001209C9
:10012300B73095FD7F147E001209B7753900753A13
:100133000B2094177F147E001209B73094FD7F14AF
:100143007E001209B7753900753A0F7590FFC2909A
:100153002097177F147E001209B73097FD7F147E16
:10016300001209B7753900753A042096177F147E7B
:10017300001209B73096FD7F147E001209B7753956
:1001830000753A082095177F147E001209B7309541
:10019300FD7F147E001209B7753900753A0C20945F
:1001A300177F147E001209B73094FD7F147E00126E
:0C01B30009B7753900753A10AE39AF3A43
:0101BF00221D
:1009CC005389F0438901758A66758CFCC28DD28C73
:0509DC00D2AFD2A922F8
:1005F600E4F512F51320B1167F14FE1209B730B1D7
:10060600FD7F147E001209B775120075130120B024
:10061600177F147E001209B730B0FD7F147E0012DA
:1006260009B775120075130220B2177F147E0012E7
:1006360009B730B2FD7F147E001209B77512007536
:10064600130320B3177F147E001209B730B3FD7F62
:10065600147E001209B7751200751304AE12AF139B
:010666002271
:090935000722170B0C15313707DE
:050A3E00C2B5C2B622A2
:0506D0002DFDEE3CFCD5
:0606D5008C3B8D3CAB07DD
:1006DB00D2B5E4FD74017E00A805088005C333CEB6
:1006EB0033CED8F9FFEBF582EF558224FF92B4D2CB
:1006FB00B6C2B60DBD08DDE4FD74017E00A8050889
:10070B008005C333CE33CED8F9FFE53B5EFEE53C27
:10071B005F4E24FF92B4D2B6C2B60DBD08DBC2B594
:01072B0022AB
:02072C00AD0717
:10072E00E4F9430501D2B5FB74017E00A8030880ED
:10073E0005C333CE33CED8F9FFEDF582EF558224C3
:10074E00FF92B4C2B6D2B60BBB08DDE4FBD2B6C282
:10075E00B630B40D7401A803088002C333D8FC422E
:0B076E00010BBB08E8C2B5C2B4AF012C
:01077900225D
:1001C000E4FDFC7F8E1206D5E52275F00A120427A5
:1001D000FF3395E0FEEFC4F8540FC868FFEEC45437
:1001E000F048FEE52275F00A120427ADF0ED3395D4
:1001F000E0FCEF7F8C1206D0E52375F00A1204278D
:10020000FF3395E0FEEFC4F8540FC868FFEEC45406
:10021000F048FEE52375F00A120427ADF0ED3395A2
:10022000E0FCEF7F881206D0E52475F00A1204275F
:10023000FF3395E0FEEFC4F8540FC868FFEEC454D6
:10024000F048FEE52475F00A120427ADF0ED339571
:10025000E0FCEF2DFDEE3CFC7F861206D5E5257512
:10026000F00A120427FF3395E0FEEFC4F8540FC8DC
:1002700068FFEEC454F048FEE52575F00A12042725
:10028000ADF0ED3395E0FCEF2DFDEE3CFC7F8412EC
:1002900006D5E52675F00A120427FF3395E0FEEF38
:1002A000C4F8540FC868FFEEC454F048FEE5267544
:1002B000F00A120427ADF0ED3395E0FCEF2DFDEED2
:1002C0003CFC7F821206D5E52775F00A120427FF51
:1002D0003395E0FEEFC4F8540FC868FFEEC454F045
:1002E00048FEE52775F00A120427ADF0ED3395E0DE
:1002F000FCEF2DFDEE3CFC7F801206D5E52875F065
:100300000A120427FF3395E0FEEFC4F8540FC868C3
:10031000FFEEC454F048FEE52875F00A120427AD3C
:10032000F0ED3395E0FCEF2DFDEE3CFC7F8A1206EC
:0A033000D57D807C007F8E0206D58B
:1004DD007F8C12072CEFC4540F75F00AA4FEEF5455
:1004ED000F2EF5227F8812072CEFC4540F75F00ADA
:1004FD00A4FEEF540F2EF5237F8612072CEFC45464
:10050D000F75F00AA4FEEF540F2EF5247F84120709
:10051D002CEFC4540F75F00AA4FEEF540F2EF525E1
:10052D007F8212072CEFC4540F75F00AA4FEEF540E
:10053D000F2EF5267F8012072CEFC4540F75F00A8D
:10054D00A4FEEF540F2EF5277F8A12072CEFC4540B
:0C055D000F75F00AA4FEEF540F2EF528D5
:01056900226F
:0C093E000A083F065B4F666D7D077F6F67
:10066700EF14B40800505490067C75F003A4C583BA
:1006770025F0C5837302069402069802069C0206BB
:10068700A00206A40206AC0206B40206BCD2A480ED
:100697000ED2A48012D2A48016D2A4801AC2A4D2E9
:1006A700A3D2A28016C2A4D2A3C2A2800EC2A4C2A1
:1006B700A3D2A28006C2A4C2A3C2A274082DF8E6E0
:0906C700F5807F017E000209B7F5
:090A2E00D2A1D2A0C2A0C2A122F3
:070A3700C2A0D2A1D2A0224F
:02085800A907EE
:10085A00C2A1E4FBFAAF0374807E00A807088006F1
:10086A00CEA2E713CE13D8F8FFE9FDEF5D24FF927D
:10087A00A0D2A1C2A10BBB00010AEB64084A70D541
:01088A00224B
:1008BB00D2A0E4FDFCD2A130A00FAE057480A80637
:1008CB00088002C313D8FC4207C2A10DBD00010C66
:0608DB00ED64084C70DF23
:0108E10022F4
:0A0A2400EF24FF92A0D2A1C2A1228C
:0B0A0400D2A0D2A1A2A0E433FFC2A147
:010A0F0022C4
:1008E2008F128C138D14120A2E7FA0120858120A2E
:1008F20004AF12120858120A04AF14120858120A4E
:0409020004020A37AA
:02088B008F12CA
:10088D00120A2E7FA0120858120A04AF121208582D
:10089D00120A04120A2E7FA1120858120A04120815
:0D08AD00BB8F137F01120A24120A37AF130C
:0108BA00221B
:0300000002056A8C
:0C056A00787FE4F6D8FD75813C0205B1F5
:10042700C2D530F707B2D563F0FF05F030E70CB25D
:10043700D5F4048463F0FF05F080018430D502F41D
:0204470004228D
:10044900BB010CE58229F582E5833AF583E0225068
:1004590006E92582F8E622BBFE06E92582F8E222B2
:0D046900E58229F582E5833AF583E49322CC
:10047600EF8DF0A4A8F0CF8CF0A428CE8DF0A42E9A
:02048600FE2254
:10048800BC000BBE0029EF8DF084FFADF022E4CC58
:10049800F875F008EF2FFFEE33FEEC33FCEE9DEC21
:1004A800984005FCEE9DFE0FD5F0E9E4CEFD22ED67
:1004B800F8F5F0EE8420D21CFEADF075F008EF2FB1
:1004C800FFED33FD4007985006D5F0F222C398FDA2
:0504D8000FD5F0EA223F
:1005760002033AE493A3F8E493A34003F68001F25E
:1005860008DFF48029E493A3F85407240CC8C33386
:10059600C4540F4420C8834004F456800146F6DF55
:1005A600E4800B0102040810204080900929E47EB3
:1005B600019360BCA3FF543F30E509541FFEE4934A
:1005C600A360010ECF54C025E060A840B8E493A311
:1005D600FAE493A3F8E493A3C8C582C8CAC583CA3C
:1005E600F0A3C8C582C8CAC583CADFE9DEE780BEF4
:01094A0000AC
:00000001FF
