:0C08900002160000021800000214000014
:1008FC00120998120A037518008F19E5194518602A
:10090C00F285194CE54CFD7C007F0112058580E3D6
:03000B0002064AA0
:10064A00C0E0C0F0C083C082C0D075D000C000C076
:0D065A0001C002C003C004C005C006C007F7
:100667000513E51370020512758A66758CFCE51390
:0F067700641445127009120762751200751300A2
:10068600D007D006D005D004D003D002D001D000C8
:0B069600D0D0D082D083D0F0D0E03272
:0609C100C2A58F80D2A741
:0809C7007F027EEFDEFEDFFC83
:0109CF002205
:0A09DC00C2A61209C1C2A70209C792
:10091C00CFCDCFCECCCE1203A67C007D0A1203A67F
:04092C00ED2430FF87
:0A093000D2A61209C1C2A70209C72E
:10095700AE07BE0104ED148006BE0209ED243F4434
:0609670080FF1209DC22F2
:1009AD007F381209DC7F0C1209DC7F061209DC7F0F
:0409BD00010209DC4E
:0A09E600AC03120957AF04020930F8
:0608D9008B3B8A3C893DC7
:1008DF00120957E4FDAB3BAA3CA93D8D82758300FD
:0C08EF00120367FF60061209300D80E95B
:0108FB0022DA
:0C07D3007F0AEA24FFFDE434FFFC7E00F6
:0807DF008E378F388C398D3AFA
:1007E7007F017E00E4FBEBC3953AE5396480F8743A
:0E07F7008098500AAC37AD381203940B80E89E
:0108050022D0
:04093A008A2A8B2B4F
:10093E00120957AA2CEAD39400400D1207D3AC2A01
:08094E00AD2B12091C1A80ED0B
:01095600227E
:1006EF00120957C3EA64809480400B7F2B120930A4
:1006FF008A1F8B20800E7F2D120930C3E49BF520BB
:10070F00E49AF51FAA1EEAD39400400D1207D3AC4A
:09071F001FAD2012091C1A80ED27
:0107280022AE
:040729008A2F8B3058
:10072D00120957AA31EAD3940040297F101207D538
:10073D00AC2FAD30CFCDCFCECCCE1203A6EF540F14
:10074D00FEC3940AEE5004243080022437FF1209B0
:04075D00301A80D1FD
:010761002275
:04079B008A348B35DC
:10079F00120957AA36EAD394004028EA24FFFDE451
:1007AF0034FFFC7F027E001207DFAC34AD35CFCDB6
:1007BF00CFCECCCE1203A6EF54012430FF12093056
:0307CF001A80D2BB
:0107D2002204
:10098300EF1FAC0670011E4C600A7D027CEFDCFE9B
:04099300DDFC80EC1B
:01099700223D
:10000E00E4F544F5457590FFC2932097167F14FED4
:10001E001209833097FD7F147E0012098375440008
:10002E007545012096177F147E001209833096FDC8
:10003E007F147E00120983754400754505209517BF
:10004E007F147E001209833095FD7F147E00120905
:10005E00837544007545092094177F147E0012099C
:10006E00833094FD7F147E0012098375440075451C
:10007E000D7590FFC2922097177F147E0012098390
:10008E003097FD7F147E001209837544007545027A
:10009E002096177F147E001209833096FD7F147E02
:1000AE00001209837544007545062095177F147E4E
:1000BE00001209833095FD7F147E0012098375446A
:1000CE000075450A2094177F147E00120983309420
:1000DE00FD7F147E0012098375440075450E7590E0
:1000EE00FFC2912097177F147E001209833097FD6F
:1000FE007F147E0012098375440075450320961700
:10010E007F147E001209833096FD7F147E00120943
:10011E00837544007545072095177F147E001209DC
:10012E00833095FD7F147E0012098375440075455A
:10013E000B2094177F147E001209833094FD7F14D8
:10014E007E0012098375440075450F7590FFC290AD
:10015E002097177F147E001209833097FD7F147E3F
:10016E00001209837544007545042096177F147E8E
:10017E00001209833096FD7F147E001209837544A8
:10018E00007545082095177F147E0012098330955F
:10019E00FD7F147E0012098375440075450C209472
:1001AE00177F147E001209833094FD7F147E001297
:0C01BE000983754400754510AE44AF4540
:0101CA002212
:100998005389F0438901758A66758CFCC28DD28CA7
:0509A800D2AFD2A9222C
:10051400E4F546F54720B1167F14FE12098330B185
:10052400FD7F147E0012098375460075470120B0D3
:10053400177F147E0012098330B0FD7F147E0012F1
:10054400098375460075470220B2177F147E001296
:10055400098330B2FD7F147E00120983754600754D
:10056400470320B3177F147E0012098330B3FD7F45
:10057400147E00120983754600754704AE46AF47E2
:010584002254
:09089C000721170B0C1531370779
:050A0900C2B5C2B622D7
:0505EE002DFDEE3CFCB8
:0605F3008C488D49AB07A6
:1005F900D2B5E4FD74017E00A805088005C333CE99
:1006090033CED8F9FFEBF582EF558224FF92B4D2AD
:10061900B6C2B60DBD08DDE4FD74017E00A805086B
:100629008005C333CE33CED8F9FFE5485EFEE549F0
:100639005F4E24FF92B4D2B6C2B60DBD08DBC2B577
:01064900228E
:0206A100AD07A3
:1006A300E4F9430501D2B5FB74017E00A803088079
:1006B30005C333CE33CED8F9FFEDF582EF5582244F
:1006C300FF92B4C2B6D2B60BBB08DDE4FBD2B6C20E
:1006D300B630B40D7401A803088002C333D8FC42BA
:0B06E300010BBB08E8C2B5C2B4AF01B8
:0106EE0022E9
:1001CB00E4FDFC7F8E1205F3E52175F00A12034561
:1001DB00FF3395E0FEEFC4F8540FC868FFEEC4542C
:1001EB00F048FEE52175F00A120345ADF0ED3395AD
:1001FB00E0FCEF7F8C1205EEE52275F00A12034549
:10020B00FF3395E0FEEFC4F8540FC868FFEEC454FB
:10021B00F048FEE52275F00A120345ADF0ED33957B
:10022B00E0FCEF7F881205EEE52375F00A1203451B
:10023B00FF3395E0FEEFC4F8540FC868FFEEC454CB
:10024B00F048FEE52375F00A120345ADF0ED33954A
:10025B00E0FCEF2DFDEE3CFC7F861205F3E52475EB
:10026B00F00A120345FF3395E0FEEFC4F8540FC8B4
:10027B0068FFEEC454F048FEE52475F00A120345FE
:10028B00ADF0ED3395E0FCEF2DFDEE3CFC7F8412E1
:10029B0005F3E52575F00A120345FF3395E0FEEFF4
:1002AB00C4F8540FC868FFEEC454F048FEE525753A
:1002BB00F00A120345ADF0ED3395E0FCEF2DFDEEAA
:1002CB003CFC7F821205F3E52675F00A120345FF0D
:1002DB003395E0FEEFC4F8540FC868FFEEC454F03A
:1002EB0048FEE52675F00A120345ADF0ED3395E0B7
:1002FB00FCEF2DFDEE3CFC7F801205F3E52775F03E
:10030B000A120345FF3395E0FEEFC4F8540FC8689B
:10031B00FFEEC454F048FEE52775F00A120345AD15
:10032B00F0ED3395E0FCEF2DFDEE3CFC7F8A1205E2
:0A033B00F37D807C007F8E0205F345
:1003FB007F8C1206A1EFC4540F75F00AA4FEEF54C4
:10040B000F2EF5217F881206A1EFC4540F75F00A49
:10041B00A4FEEF540F2EF5227F861206A1EFC454D3
:10042B000F75F00AA4FEEF540F2EF5237F841206EE
:10043B00A1EFC4540F75F00AA4FEEF540F2EF52450
:10044B007F821206A1EFC4540F75F00AA4FEEF547D
:10045B000F2EF5257F801206A1EFC4540F75F00AFD
:10046B00A4FEEF540F2EF5267F8A1206A1EFC4547B
:0C047B000F75F00AA4FEEF540F2EF527B9
:010487002252
:0C08A5000A083F065B4F666D7D077F6F01
:10058500EF14B40800505490059A75F003A4C58380
:1005950025F0C583730205B20205B60205BA020548
:1005A500BE0205C20205CA0205D20205DAD2A4803E
:1005B5000ED2A48012D2A48016D2A4801AC2A4D2CC
:1005C500A3D2A28016C2A4D2A3C2A2800EC2A4C284
:1005D500A3D2A28006C2A4C2A3C2A274082DF8E6C3
:0905E500F5807F017E000209830C
:0909FA00D2A1D2A0C2A0C2A12228
:07000300C2A0D2A1D2A0228D
:02080600A90740
:10080800C2A1E4FBFAAF0374807E00A80708800643
:10081800CEA2E713CE13D8F8FFE9FDEF5D24FF92CF
:10082800A0D2A1C2A10BBB00010AEB64084A70D593
:01083800229D
:10086900D2A0E4FDFCD2A130A00FAE057480A80689
:10087900088002C313D8FC4207C2A10DBD00010CB8
:06088900ED64084C70DF75
:01088F002246
:0A09F000EF24FF92A0D2A1C2A122C1
:0B09D000D2A0D2A1A2A0E433FFC2A17C
:0109DB0022F9
:1008B5008F3E8C3F8D401209FA7FA012080612095F
:1008C500D0AF3E1208061209D0AF40120806120931
:0408D500D00200034A
:020839008F4AE4
:10083B001209FA7FA01208061209D0AF4A12080655
:10084B001209D01209FA7FA11208061209D0120858
:0D085B00698F4B7F011209F0120003AF4BB3
:01086800226D
:0308B10001430000
:10096D00E4FF20B1010F20B0027F0220B2027F030D
:05097D0020B3027F041D
:010982002252
:050A0300AF43E4F543E0
:010A080022CB
:1007620085414212096D8F41E542B40107E54170AE
:1007720003754301E542B40207E541700375430284
:10078200E542B40307E5417003754303E542B4044F
:0807920007E541700375430403
:01079A00223C
:030000000204886F
:0C048800787FE4F6D8FD75814C0204CFAB
:10034500C2D530F707B2D563F0FF05F030E70CB240
:10035500D5F4048463F0FF05F080018430D502F400
:02036500042270
:10036700BB010CE58229F582E5833AF583E022504B
:1003770006E92582F8E622BBFE06E92582F8E22295
:0D038700E58229F582E5833AF583E49322AF
:10039400EF8DF0A4A8F0CF8CF0A428CE8DF0A42E7D
:0203A400FE2237
:1003A600BC000BBE0029EF8DF084FFADF022E4CC3B
:1003B600F875F008EF2FFFEE33FEEC33FCEE9DEC04
:1003C600984005FCEE9DFE0FD5F0E9E4CEFD22ED4A
:1003D600F8F5F0EE8420D21CFEADF075F008EF2F94
:1003E600FFED33FD4007985006D5F0F222C398FD85
:0503F6000FD5F0EA2222
:100494000208FCE493A3F8E493A34003F68001F27A
:1004A40008DFF48029E493A3F85407240CC8C33369
:1004B400C4540F4420C8834004F456800146F6DF38
:1004C400E4800B0102040810204080900890E47E30
:1004D400019360BCA3FF543F30E509541FFEE4932D
:1004E400A360010ECF54C025E060A840B8E493A3F4
:1004F400FAE493A3F8E493A3C8C582C8CAC583CA1F
:10050400F0A3C8C582C8CAC583CADFE9DEE780BED6
:0108B4000043
:00000001FF
