:0300000002014BAF
:0C014B00787FE4F6D8FD75811502019262
:06000300011000011100D4
:1002B6001202D3750C00750D3C750E00750F37E4F0
:0D02C600F590D297D296D2A712000E80FBC1
:03000B000201D718
:1001D700C0E0C0F0C0D075D000C000C004C005C0EA
:0301E70006C00748
:1001EA000509E50970020508AE08FF7C007D641266
:1001FA0002618C088D090509E50970020508AE0837
:10020A00FF7C007D641202618C088D09758A66750F
:10021A008CFCD3E50D9509E50C95085002C297D3DD
:10022A00E50D9509E50C95084002D297D3E50F959F
:10023A0009E50E95085002C296D3E50F9509E50E19
:06024A0095084002D29667
:10025000D007D006D005D004D000D0D0D0F0D0E068
:01026000326B
:1002D3005389F0438901758A66758CFCC28DD28C73
:0502E300D2AFD2A922F8
:10035100C295C293C294C292E4F50CF50DF50EF567
:020361000F2269
:1002E800D295D293C294C292750C00750D1E750EEC
:0502F80000750F1E223D
:1002FD00D295D293C294C292750C00750D0F750EE6
:05030D0000750F18222D
:10031200D295D293C294C292750C00750D18750EC7
:0503220000750F0F2221
:10032700C295D293D294C292750C00750D19750EB1
:0503370000750F192202
:10000E0020A00C20A10920A20620A3031203513028
:10001E00A00C30A10930A20630A3031202E820A0E2
:10002E000C30A10930A20620A3031202E820A02959
:10003E0020A12630A22320A3201203127F047E00CB
:10004E0012033C20A01320A11020A20D20A30A12FF
:10005E0002FD7F327E0012033C20A02930A1262013
:10006E00A22320A3201202FD7F047E0012033C2057
:10007E00A01320A11020A20D20A30A1203127F327A
:10008E007E0012033C30A00930A10630A20330A33B
:10009E000C30A06830A16520A26220A35F1202E896
:1000AE007F327E0012033C20A05220A14F20A24C92
:1000BE0020A3491203517FC87E0012033C1203276E
:1000CE0020A00930A10620A20330A30C20A0F130FD
:1000DE00A1EE30A2EB20A3E81202E87F587E0212B6
:1000EE00033CD295C293C294C292750C00750D0F4B
:1000FE00E4F50EF50F7F2C7E0112033C30A01D207F
:10010E00A11A20A21720A314D295D293C294C29200
:10011E00750C00750D0A750E00750F2820A01D2098
:10012E00A11A20A21730A314D295D293C294C292D0
:0D013E00750C00750D28750E00750F0A2256
:10033C00EF1FAC0670011E4C600A7D027CEFDCFEE8
:04034C00DDFC80EC68
:01035000228A
:100157000202B6E493A3F8E493A34003F68001F206
:1001670008DFF48029E493A3F85407240CC8C333A9
:10017700C4540F4420C8834004F456800146F6DF78
:10018700E4800B0102040810204080900003E47E05
:10019700019360BCA3FF543F30E509541FFEE4936D
:1001A700A360010ECF54C025E060A840B8E493A334
:1001B700FAE493A3F8E493A3C8C582C8CAC583CA5F
:1001C700F0A3C8C582C8CAC583CADFE9DEE780BE17
:0100090000F6
:10026100BC000BBE0029EF8DF084FFADF022E4CC81
:10027100F875F008EF2FFFEE33FEEC33FCEE9DEC4A
:10028100984005FCEE9DFE0FD5F0E9E4CEFD22ED90
:10029100F8F5F0EE8420D21CFEADF075F008EF2FDA
:1002A100FFED33FD4007985006D5F0F222C398FDCB
:0502B1000FD5F0EA2268
:00000001FF
