:03000000020220D9
:0C022000787FE4F6D8FD75812F0202679C
:0404A6000229000027
:1002AC0012051E1204921204D6EF70061204E3EF2C
:1002BC0060F41205248F2C1205278F2BE52CFB7A6A
:1002CC00007518027D017F0212034AE52BFB7A00B0
:1002DC007518027D047F0212034A751803AB2AAA13
:1002EC00297D077F0212042FE52BB41508E52A158A
:1002FC002A70021529E52BB409AC052AE52A70A64B
:04030C00052980A29D
:10047D00EF1FAC0670011E4C600A7D027CEFDCFEA6
:04048D00DDFC80EC26
:010491002248
:0604C700C2A58F80D2A740
:0804CD007F027EEFDEFEDFFC82
:0104D5002204
:0A04FB00C2A61204C7C2A70204CD76
:10041100CFCDCFCECCCE1201957C007D0A120195B5
:04042100ED2430FF97
:0A042500D2A61204C7C2A70204CD3C
:10046700AE07BE0104ED148006BE0209ED243F4429
:0604770080FF1204FB22CD
:100492007F381204FB7F0C1204FB7F061204FB7FE1
:0404A200010204FB54
:0A050500AC03120467AF04020425E2
:0603EE008B2D8A2E892FE1
:1003F400120467E4FDAB2DAA2EA92F8D827583000C
:0C040400120156FF60061204250D80E96D
:0104100022C9
:0C03BB007F0AEA24FFFDE434FFFC7E0012
:0803C7008E198F1A8C1B8D1C8E
:1003CF007F017E00E4FBEBC3951CE51B6480F87492
:0E03DF008098500AAC19AD1A1201830B80E809
:0103ED0022ED
:04042F008A168B1787
:10043300120467AA18EAD39400400D1203BBAC164A
:08044300AD171204111A80ED3F
:01044B00228E
:10031000120467C3EA64809480400B7F2B1204258B
:100320008A228B23800E7F2D120425C3E49BF523A4
:10033000E49AF522AA21EAD39400400D1203BBAC43
:0903400022AD231204111A80ED14
:010349002291
:04034A008A168B176D
:10034E00120467AA18EAD3940040297F101203BD45
:10035E00AC16AD17CFCDCFCECCCE120195EF540F3C
:10036E00FEC3940AEE5004243080022437FF120498
:04037E00251A80D1EB
:010382002258
:040383008A268B2714
:10038700120467AA28EAD394004028EA24FFFDE470
:1003970034FFFC7F027E001203C7AC26AD27CFCD0A
:1003A700CFCECCCE120195EF54012430FF12042595
:0303B7001A80D2D7
:0103BA002220
:0B04F000D288C289D2A8D2AFD2B822B5
:1004B7005389F0438901E4F58AF58CC28DC28C22F9
:10044C00AB07AA067C017D001201EA8D8AAE02AFD1
:0B045C00037C017D001201EA8F8C225E
:06051800EF24FF928C228B
:09050F00AF8CEFFEAD8AEDFF2276
:0C04AA00011300010800010D0001120008
:06051E001204B70204F014
:0D04D600E5086006E4F5087F01227F0022A2
:0D04E300E5136006E4F5137F01227F00227F
:03052400AF1122F2
:03052700AF1022F0
:03000300020006F2
:10000600C0E0C0F0C083C082C0D075D000C000C0C0
:1000160001C002C003C004C005C006C007E50D70DC
:100026000CFFFE12044C7F01120518804BE50D648F
:1000360001704B12050F8E0E8F0FE4FFFE12044C5B
:10004600C3E50F94A6E50E942E4011D3E50F948ECA
:10005600E50E94325006750D0202013BC3E50F947E
:100066008CE50E94264011D3E50F9474E50E942A80
:100076005006751301020133750D0102013BE50DB2
:100086006402600302013B12050F8E0E8F0FE4FF20
:10009600FE12044CC3E50F94B0E50E9401402DD337
:1000A600E50F9460E50E94065022E51213131354DF
:1000B6001F2409F8C000E6FFE5125407FE7401A8E4
:1000C60006088002C333D8FCF45F8035C3E50F947D
:1000D600C2E50E94054031D3E50F9472E50E940AFD
:1000E6005026E512131313541F2409F8C000E6FF27
:1000F600E5125407FE7401A806088002C333D8FC33
:100106004FD000F605128006751200750D01E51236
:10011600C394204020751200E50AF4B5090FE50CDA
:10012600F4B50B09750801850911850B10E4FF125A
:100136000518750D00D007D006D005D004D003D021
:1001460002D001D000D0D0D082D083D0F0D0E0321F
:10022C000202ACE493A3F8E493A34003F68001F23A
:10023C0008DFF48029E493A3F85407240CC8C333D3
:10024C00C4540F4420C8834004F456800146F6DFA2
:10025C00E4800B01020408102040809004A6E47E88
:10026C00019360BCA3FF543F30E509541FFEE49397
:10027C00A360010ECF54C025E060A840B8E493A35E
:10028C00FAE493A3F8E493A3C8C582C8CAC583CA89
:10029C00F0A3C8C582C8CAC583CADFE9DEE780BE41
:0104B6000045
:10015600BB010CE58229F582E5833AF583E022505E
:1001660006E92582F8E622BBFE06E92582F8E222A8
:0D017600E58229F582E5833AF583E49322C2
:10018300EF8DF0A4A8F0CF8CF0A428CE8DF0A42E90
:02019300FE224A
:10019500BC000BBE0029EF8DF084FFADF022E4CC4E
:1001A500F875F008EF2FFFEE33FEEC33FCEE9DEC17
:1001B500984005FCEE9DFE0FD5F0E9E4CEFD22ED5D
:1001C500F8F5F0EE8420D21CFEADF075F008EF2FA7
:1001D500FFED33FD4007985006D5F0F222C398FD98
:0501E5000FD5F0EA2235
:1001EA00C2D5EC30E709B2D5E4C39DFDE49CFCEE30
:1001FA0030E715B2D5E4C39FFFE49EFE120195C312
:10020A00E49DFDE49CFC800312019530D507C3E40C
:06021A009FFFE49EFE229E
:00000001FF
