:030000000200FFFC
:0C00FF00787FE4F6D8FD75811E020146F2
:1000030002170000021401F4011301020F000001A2
:050013000E00011101C7
:1001FC001202F3E4F50FF510751301F50E75A0FF5F
:10020C001203087517008F18D3E51594DCE51494C8
:10021C000540067514017515F4E518640145177051
:10022C0006750E0175A0FFE51864024517700CE504
:10023C001370047F0180027F008F13E5186404455E
:10024C001760ADE5186403451770B574FA2515F5FC
:08025C0015E43514F51480A827
:03001B0002001EC2
:10001E00C0E0C0F0C083C082C0D075D000C000C0A8
:0D002E0001C002C003C004C005C006C00729
:10003B00758B66758DFC0509E50970020508050BC6
:10004B00E50B7002050A050DE50D7002050CE509BF
:10005B00B4E80DE508B40308B2A0750800750900F3
:10006B00E50B65157004E50A65147059E510640716
:10007B00450F7004F50FF510750A00750B00E50EB2
:10008B006043E5136019E51155A0F51644FEF51E06
:10009B00AF107480A807088002C313D8FC8019E541
:1000AB001155A0F51644FEF51EE51004FF7401A8CA
:1000BB0007088002C333D8FCF4551EF5A00510E5E4
:1000CB00107002050FD3E50D9414E50C9400400954
:0900DB00120264750C00750D00A1
:1000E400D007D006D005D004D003D002D001D00070
:0B00F400D0D0D082D083D0F0D0E0321A
:1002C900EF1FAC0670011E4C600A7D0C7CA9DCFE98
:0402D900DDFC80ECDC
:0102DD0022FE
:10018B00E4F51CF51D20B1167F14FE12000030B1F2
:10019B00FD7F147E00120000751C00751D0120B040
:1001AB00177F147E0012000030B0FD7F147E00120A
:1001BB000000751C00751D0220B2177F147E001203
:1001CB00000030B2FD7F147E00120000751C00751C
:1001DB001D0320B3177F147E0012000030B3FD7F88
:1001EB00147E00120000751C00751D04AE1CAF1DA3
:0101FB0022E1
:1002DE005389F0438901758A66758CFCC28DD28C68
:0502EE00D2AFD2A922ED
:1002F30053890F438910758B66758DFCC28FD28E1F
:05030300D2AFD2AB22D5
:10029D00E4F5C9F5C875CC6675CDFC75CA6675CB28
:0602AD00FCD2CAD2AD2212
:1002B300E4FF20B1010F20B0027F0220B2027F03CE
:0502C30020B3027F04DE
:0102C8002213
:05030800E4AF1BF51B32
:01030D0022CD
:10026400851A191202B38F1AE519B40107E51A7039
:1002740003751B01E519B40207E51A7003751B0227
:10028400E519B40307E51A7003751B03E519B404F3
:0802940007E51A7003751B0455
:01029C00223F
:10010B000201FCE493A3F8E493A34003F68001F20D
:10011B0008DFF48029E493A3F85407240CC8C333F5
:10012B00C4540F4420C8834004F456800146F6DFC4
:10013B00E4800B0102040810204080900003E47E51
:10014B00019360BCA3FF543F30E509541FFEE493B9
:10015B00A360010ECF54C025E060A840B8E493A380
:10016B00FAE493A3F8E493A3C8C582C8CAC583CAAB
:10017B00F0A3C8C582C8CAC583CADFE9DEE780BE63
:0100180000E7
:00000001FF
