:060A7C0077646E6D64005A
:0B092300020B0000021500000108009C
:10058900E4F509F50A120A1F7BFF7A0A797C7D01D5
:100599007F0112096B7F9C1205098E0F8F1075253B
:1005A90004AB10AA0F7D017F021209AC7F0A7E00FD
:1005B9001209F57FDC1205098E118F12752504AB1E
:1005C90012AA117D067F021209AC7F0A7E00120968
:1005D900F57FAC1205098E138F14752504AB14AA87
:1005E900137D0B7F021209AC7F0A7E001209F58088
:0105F900A45D
:060A3300C2A58F80D2A7CE
:080A39007F027EEFDEFEDFFC10
:010A41002292
:0A0A4E00C2A6120A33C2A7020A3939
:10098E00CFCDCFCECCCE12039B7C007D0A12039B23
:04099E00ED2430FF15
:0A09A200D2A6120A33C2A7020A39D6
:1009C900AE07BE0104ED148006BE0209ED243F44C2
:0609D90080FF120A4E220D
:100A1F007F38120A4E7F0C120A4E7F06120A4E7F43
:040A2F0001020A4E68
:0A0A5800AC031209C9AF040209A2A1
:06096B008B218A22892382
:100971001209C9E4FDAB21AA22A9238D8275830046
:0C09810012035CFF60061209A20D80E961
:01098D002247
:0C0866007F0AEA24FFFDE434FFFC7E0062
:080872008E268F278C288D29AA
:10087A007F017E00E4FBEBC39529E5286480F874C8
:0E088A008098500AAC26AD271203890B80E837
:01089800223D
:0409AC008A238B24EB
:1009B0001209C9AA25EAD39400400D120866AC2397
:0809C000AD2412098E1A80ED2E
:0109C800220C
:100782001209C9C3EA64809480400B7F2B1209A22C
:100792008A2F8B30800E7F2D1209A2C3E49BF53085
:1007A200E49AF52FAA2EEAD39400400D120866AC03
:0907B2002FAD3012098E1A80ED02
:0107BB00221B
:0407BC008A3A8B3BAF
:1007C0001209C9AA3CEAD3940040297F1012086894
:1007D000AC3AAD3BCFCDCFCECCCE12039BEF540F76
:1007E000FEC3940AEE5004243080022437FF12091D
:0407F000A21A80D1F8
:0107F40022E2
:04082E008A3F8B4032
:100832001209C9AA41EAD394004028EA24FFFDE440
:1008420034FFFC7F027E00120872AC3FAD40CFCD78
:10085200CFCECCCE12039BEF54012430FF1209A25B
:030862001A80D227
:010865002270
:1009F500EF1FAC0670011E4C600A7D027CEFDCFE29
:040A0500DDFC80ECA8
:010A090022CA
:10000300E4F548F5497590FFC2932097167F14FED7
:100013001209F53097FD7F147E001209F57548002B
:100023007549012096177F147E001209F53096FD5D
:100033007F147E001209F575480075490520951750
:100043007F147E001209F53095FD7F147E0012099E
:10005300F57548007549092094177F147E0012092D
:10006300F53094FD7F147E001209F575480075493B
:100073000D7590FFC2922097177F147E001209F529
:100083003097FD7F147E001209F57548007549020B
:100093002096177F147E001209F53096FD7F147E9B
:1000A300001209F57548007549062095177F147EDF
:1000B300001209F53095FD7F147E001209F575488D
:1000C3000075490A2094177F147E001209F53094B5
:1000D300FD7F147E001209F575480075490E759071
:1000E300FFC2912097177F147E001209F53097FD08
:1000F3007F147E001209F575480075490320961791
:100103007F147E001209F53096FD7F147E001209DC
:10011300F57548007549072095177F147E0012096D
:10012300F53095FD7F147E001209F5754800754979
:100133000B2094177F147E001209F53094FD7F1471
:100143007E001209F575480075490F7590FFC2903E
:100153002097177F147E001209F53097FD7F147ED8
:10016300001209F57548007549042096177F147E1F
:10017300001209F53096FD7F147E001209F57548CB
:10018300007549082095177F147E001209F53095F4
:10019300FD7F147E001209F575480075490C209403
:1001A300177F147E001209F53094FD7F147E001230
:0C01B30009F5754800754910AE48AF49C9
:0101BF00221D
:100A0A005389F0438901758A66758CFCC28DD28C34
:050A1A00D2AFD2A922B9
:1005FA00E4F54AF54B20B1167F14FE1209F530B125
:10060A00FD7F147E001209F5754A00754B0120B072
:10061A00177F147E001209F530B0FD7F147E001298
:10062A0009F5754A00754B0220B2177F147E001235
:10063A0009F530B2FD7F147E001209F5754A00757E
:10064A004B0320B3177F147E001209F530B3FD7FE8
:10065A00147E001209F5754A00754B04AE4AAF4B79
:01066A00226D
:09092E000731170B0C15313707D6
:050A8800C2B5C2B62258
:0506D8002DFDEE3CFCCD
:0606DD008C4C8D4DAB07B3
:1006E300D2B5E4FD74017E00A805088005C333CEAE
:1006F30033CED8F9FFEBF582EF558224FF92B4D2C3
:10070300B6C2B60DBD08DDE4FD74017E00A8050880
:100713008005C333CE33CED8F9FFE54C5EFEE54DFD
:100723005F4E24FF92B4D2B6C2B60DBD08DBC2B58C
:0107330022A3
:02073400AD070F
:10073600E4F9430501D2B5FB74017E00A8030880E5
:1007460005C333CE33CED8F9FFEDF582EF558224BB
:10075600FF92B4C2B6D2B60BBB08DDE4FBD2B6C27A
:10076600B630B40D7401A803088002C333D8FC4226
:0B077600010BBB08E8C2B5C2B4AF0124
:010781002255
:1001C000E4FDFC7F8E1206DDE53175F00A12033A7C
:1001D000FF3395E0FEEFC4F8540FC868FFEEC45437
:1001E000F048FEE53175F00A12033AADF0ED3395B3
:1001F000E0FCEF7F8C1206D8E53275F00A12033A64
:10020000FF3395E0FEEFC4F8540FC868FFEEC45406
:10021000F048FEE53275F00A12033AADF0ED339581
:10022000E0FCEF7F881206D8E53375F00A12033A36
:10023000FF3395E0FEEFC4F8540FC868FFEEC454D6
:10024000F048FEE53375F00A12033AADF0ED339550
:10025000E0FCEF2DFDEE3CFC7F861206DDE53475FB
:10026000F00A12033AFF3395E0FEEFC4F8540FC8CA
:1002700068FFEEC454F048FEE53475F00A12033A04
:10028000ADF0ED3395E0FCEF2DFDEE3CFC7F8412EC
:1002900006DDE53575F00A12033AFF3395E0FEEF0F
:1002A000C4F8540FC868FFEEC454F048FEE5357535
:1002B000F00A12033AADF0ED3395E0FCEF2DFDEEC0
:1002C0003CFC7F821206DDE53675F00A12033AFF28
:1002D0003395E0FEEFC4F8540FC868FFEEC454F045
:1002E00048FEE53675F00A12033AADF0ED3395E0BD
:1002F000FCEF2DFDEE3CFC7F801206DDE53775F04E
:100300000A12033AFF3395E0FEEFC4F8540FC868B1
:10031000FFEEC454F048FEE53775F00A12033AAD1B
:10032000F0ED3395E0FCEF2DFDEE3CFC7F8A1206EC
:0A033000DD7D807C007F8E0206DD7B
:1003F0007F8C120734EFC4540F75F00AA4FEEF543B
:100400000F2EF5317F88120734EFC4540F75F00AB0
:10041000A4FEEF540F2EF5327F86120734EFC4543A
:100420000F75F00AA4FEEF540F2EF5337F841207E8
:1004300034EFC4540F75F00AA4FEEF540F2EF534B8
:100440007F82120734EFC4540F75F00AA4FEEF54F4
:100450000F2EF5357F80120734EFC4540F75F00A64
:10046000A4FEEF540F2EF5367F8A120734EFC454E2
:0C0470000F75F00AA4FEEF540F2EF537B4
:01047C00225D
:0C0937000A173F065B4F666D7D077F6F5F
:10066B00EF14B40800505490068075F003A4C583B2
:10067B0025F0C5837302069802069C0206A00206AB
:10068B00A40206A80206B00206B80206C0D2A480D5
:10069B000ED2A48012D2A48016D2A4801AC2A4D2E5
:1006AB00A3D2A28016C2A4D2A3C2A2800EC2A4C29D
:1006BB00A3D2A28006C2A4C2A3C2A274172DF8E6CD
:0D06CB00F5807F017E001209F5E4F5802224
:090A6C00D2A1D2A0C2A0C2A122B5
:070A7500C2A0D2A1D2A02211
:02089900A907AD
:10089B00C2A1E4FBFAAF0374807E00A807088006B0
:1008AB00CEA2E713CE13D8F8FFE9FDEF5D24FF923C
:1008BB00A0D2A1C2A10BBB00010AEB64084A70D500
:0108CB00220A
:1008FC00D2A0E4FDFCD2A130A00FAE057480A806F6
:10090C00088002C313D8FC4207C2A10DBD00010C24
:06091C00ED64084C70DFE1
:0109220022B2
:0A0A6200EF24FF92A0D2A1C2A1224E
:0B0A4200D2A0D2A1A2A0E433FFC2A109
:010A4D002286
:100947008F428C438D44120A6C7FA0120899120AB9
:1009570042AF42120899120A42AF44120899120A8A
:0409670042020A75C9
:0208CC008F4E4D
:1008CE00120A6C7FA0120899120A42AF4E120899B2
:1008DE00120A42120A6C7FA1120899120A421208D9
:0D08EE00FC8F4F7F01120A62120A75AF4F96
:0108FB0022DA
:0309430001470069
:1009DF00E4FF20B1010F20B0027F0220B2027F039B
:0509EF0020B3027F04AB
:0109F40022E0
:050A8200AF47E4F54759
:010A8700224C
:1007F5008545461209DF8F45E546B40107E5457095
:1008050003754701E546B40207E5457003754702E0
:10081500E546B40307E5457003754703E546B404AB
:0808250007E545700375470467
:01082D0022A8
:02050900A90740
:10050B00E4F521F522C2B6C2B5FBFAAF0374807EC7
:10051B0000A807088006CEA2E713CE13D8F8FFE990
:10052B00FDEF5D24FF92B4D2B6C2B60BBB00010A3D
:10053B00EB64084A70D5E4FAFBD2B6C2B630B716F4
:10054B00AF03E47E80A807088005CEC313CE13D873
:10055B00F94222EE42210BBB00010AEB64104A70F8
:10056B00D8D2B5E930E206E521FF7E0022E521C4B1
:0D057B00F854F0C868FEE522C4540F48FF94
:010588002250
:0300000002047D7A
:0C047D00787FE4F6D8FD75814F0204C4BE
:10033A00C2D530F707B2D563F0FF05F030E70CB24B
:10034A00D5F4048463F0FF05F080018430D502F40B
:02035A0004227B
:10035C00BB010CE58229F582E5833AF583E0225056
:10036C0006E92582F8E622BBFE06E92582F8E222A0
:0D037C00E58229F582E5833AF583E49322BA
:10038900EF8DF0A4A8F0CF8CF0A428CE8DF0A42E88
:02039900FE2242
:10039B00BC000BBE0029EF8DF084FFADF022E4CC46
:1003AB00F875F008EF2FFFEE33FEEC33FCEE9DEC0F
:1003BB00984005FCEE9DFE0FD5F0E9E4CEFD22ED55
:1003CB00F8F5F0EE8420D21CFEADF075F008EF2F9F
:1003DB00FFED33FD4007985006D5F0F222C398FD90
:0503EB000FD5F0EA222D
:10048900020589E493A3F8E493A34003F68001F2FB
:1004990008DFF48029E493A3F85407240CC8C33374
:1004A900C4540F4420C8834004F456800146F6DF43
:1004B900E4800B0102040810204080900923E47EA7
:1004C900019360BCA3FF543F30E509541FFEE49338
:1004D900A360010ECF54C025E060A840B8E493A3FF
:1004E900FAE493A3F8E493A3C8C582C8CAC583CA2A
:1004F900F0A3C8C582C8CAC583CADFE9DEE780BEE2
:0109460000B0
:00000001FF
