:0300000002000EED
:0C000E00787FE4F6D8FD758115020055DE
:06000300011000011100D4
:10017900120194750C00750D3C750E00750F37E46E
:0B018900F590D297D29612027880FB0E
:03000B0002009A56
:10009A00C0E0C0F0C0D075D000C000C004C005C028
:0300AA0006C00786
:1000AD000509E50970020508AE08FF7C007D6412A4
:1000BD0001248C088D090509E50970020508AE08B3
:1000CD00FF7C007D641201248C088D09758A66758C
:1000DD008CFCD3E50D9509E50C95085002C297D31C
:1000ED00E50D9509E50C95084002D297D3E50F95DE
:1000FD0009E50E95085002C296D3E50F9509E50E58
:06010D0095084002D296A5
:10011300D007D006D005D004D000D0D0D0F0D0E0A6
:0101230032A9
:100194005389F0438901758A66758CFCC28DD28CB3
:0501A400D2AFD2A92238
:10026600C295C293C294C292E4F50CF50DF50EF553
:020276000F2255
:1001A900D295D293C294C292750C00750D14750E36
:0501B90000750F1A2281
:1001BE00D295D293C294C292750C00750D0F750E26
:0501CE0000750F1E2268
:1001D300D295D293C294C292750C00750D18750E08
:0501E30000750F15225C
:1001E800D295D293C294C292750C00750D09750E02
:0501F80000750F1A2242
:1001FD00D295D293C294C292750C00750D09750EED
:05020D0000750F122234
:10021200D295D293C294C292750C00750D0F750ED1
:0502220000750F06222B
:10022700C295C293D294D292750C00750D32750E99
:0502370000750F3822E4
:10023C00C295C293D294D292750C00750D64750E52
:05024C0000750F6422A3
:0302780002023C43
:10025100EF1FAC0670011E4C600A7D027CEFDCFED4
:04026100DDFC80EC54
:010265002276
:10001A00020179E493A3F8E493A34003F68001F282
:10002A0008DFF48029E493A3F85407240CC8C333E7
:10003A00C4540F4420C8834004F456800146F6DFB6
:10004A00E4800B0102040810204080900003E47E43
:10005A00019360BCA3FF543F30E509541FFEE493AB
:10006A00A360010ECF54C025E060A840B8E493A372
:10007A00FAE493A3F8E493A3C8C582C8CAC583CA9D
:10008A00F0A3C8C582C8CAC583CADFE9DEE780BE55
:0100090000F6
:10012400BC000BBE0029EF8DF084FFADF022E4CCBF
:10013400F875F008EF2FFFEE33FEEC33FCEE9DEC88
:10014400984005FCEE9DFE0FD5F0E9E4CEFD22EDCE
:10015400F8F5F0EE8420D21CFEADF075F008EF2F18
:10016400FFED33FD4007985006D5F0F222C398FD09
:050174000FD5F0EA22A6
:00000001FF
