:030000000200D02B
:0C00D000787FE4F6D8FD7581070200037C
:0400B8007F147E0033
:1000BC00EF4E600F7D027CEFDCFEDDFCEF1F70F07D
:0300CC001E80EDA6
:0100CF00220E
:10000300790175A0AA7B017A0090000020B10C123F
:1000130000B830B1FD1200B875A0FE20B30B12007A
:10002300B830B3FD1200B880D920B2311200B83015
:10003300B2FD1200B80BBB00010AEB64044A701D49
:10004300FA7B01F583F582E970047F0180027F006A
:10005300A907E9600575A0FE800375A07F20B0ACF9
:100063001200B830B0FD1200B8EB2582F582EA35F4
:1000730083F583C3E5829408E58364809480400C10
:1000830074F82582F58274FF3583F583E96013AF35
:10009300827401A807088002C333D8FCF4F5A002D8
:1000A300000FAF827480A807088002C313D8FCF442
:0500B300F5A002000FA2
:00000001FF
