:0300000002055C9A
:0C055C00787FE4F6D8FD7581240204626B
:0A056800AE071FEE60030080F722CB
:04059A005389F1226E
:10034000D2A2E4F58AF58C7F0A120568C2A230A118
:10035000FDD28C20A1FDC28CAF8CEFFEAD8A7C005B
:10036000E42DFFEC3EFEAD07FCE41201AE7BCD7A3E
:10037000CC79B078411200037B007A40791C784632
:0303800012010C5B
:010383002257
:1004620012059A1205291203401201E7AB07AA06E8
:10047200750C057D017F021204C67F647E001205A1
:030482001480E300
:10053D005389F0438901E4F58AF58CC28DC28C2272
:1004E300AB07AA067C017D001202FC8D8AAE02AF27
:0B04F300037C017D001202FC8F8C22B4
:06058F00EF24FF928C2214
:09058600AF8CEFFEAD8AEDFF22FF
:10051400EF1FAC0670011E4C600A7D027CEFDCFE0E
:04052400DDFC80EC8E
:0105280022B0
:040595007F02DFFE04
:01059900223F
:06054D00C2A58F80D2A7B9
:080553007F027EEFDEFEDFFCFB
:01055B00227D
:0A057200C2A612054DC2A7020553F0
:1004A800CFCDCFCECCCE1202A77C007D0A1202A7F8
:0404B800ED2430FF00
:0A04BC00D2A612054DC2A702055397
:1004FE00AE07BE0104ED148006BE0209ED243F4492
:06050E0080FF12057222BD
:100529007F381205727F0C1205727F061205727FE1
:040539000102057244
:0A057C00AC031204FEAF040204BC3D
:060485008B228A2389246A
:10048B001204FEE4FDAB22AA23A9248D82758300FE
:0C049B00120268FF60061204BC0D80E92C
:0104A7002232
:0C042F007F0AEA24FFFDE434FFFC7E009D
:08043B008E0D8F0E8C0F8D1049
:100443007F017E00E4FBEBC39510E50F6480F87435
:0E0453008098500AAC0DAD0E1202950B80E899
:010461002278
:0404C6008A0A8B0B08
:1004CA001204FEAA0CEAD39400400D12042FAC0ABF
:0804DA00AD0B1204A81A80ED1D
:0104E20022F7
:100384001204FEC3EA64809480400B7F2B1204BCE9
:100394008A168B17800E7F2D1204BCC3E49BF517BD
:1003A400E49AF516AA15EAD39400400D12042FAC72
:0903B40016AD171204A81A80ED21
:0103BD00221D
:0403BE008A1A8B1BF1
:1003C2001204FEAA1CEAD3940040297F10120431C1
:1003D200AC1AAD1BCFCDCFCECCCE1202A7EF540FAD
:1003E200FEC3940AEE5004243080022437FF120424
:0403F200BC1A80D1E0
:0103F60022E4
:0403F7008A1F8B20AE
:1003FB001204FEAA21EAD394004028EA24FFFDE46C
:10040B0034FFFC7F027E0012043BAC1FAD20CFCD2E
:10041B00CFCECCCE1202A7EF54012430FF1204BC76
:03042B001A80D262
:01042E0022AB
:10000300EC4D6011E8497017ED33EC3304600DE4F7
:10001300FCFFFEFD22E933E8330470F802025312B9
:10002300021E58046009E4CC2481500628500902BA
:10003300025D28400302025AC0E0EB4A7044B980D3
:1000430006D0E0FB020249EF4E701CBD8008EBFFB7
:10005300EAFEE9FD80EBE98DF0A4FEE5F00200EC99
:10006300E9CDF9EAFEEBFFEF89F0A4FCE5F0CE89D8
:10007300F0A42EFFE435F0CD89F0A42DFEE435F095
:100083008067EF4E7005BD80D780C3EF8BF0A4ACC3
:10009300F0EE8BF0A42CFCE435F0F8EF8AF0A42CFE
:1000A300E5F038FCE433CB8DF0A42CFCE5F03BF811
:1000B300EE8AF0A42CFCE5F038F8E433CF89F0A401
:1000C3002CFCE5F038CF3400CE89F0A42FFFE5F007
:1000D3003EFEE433C98DF0A42EFEE5F039CD8AF05F
:1000E300A42FFFE5F03EFEE43DFD33D0E0FB5007D7
:1000F3000BBB000F02025DEC2CFCEF33FFEE33FE73
:06010300ED33FD020235A0
:1001090002025DEC5D046005E859047003020253C4
:1001190012021E580460F6EC4860F2EC7004FDFE11
:10012900FF22C860DB2481C85009C39860025006C9
:1001390002025A9850CAF582E9294B4A7005AB82E6
:1001490002024975F0007C1A7880C3EF9BEE9AEDA4
:1001590099400DC3EF9BFFEE9AFEED99FDE842F041
:10016900DC23ACF0D0E0FFD0E0FED0E0FDAB822094
:10017900E7101BEB60BAEC2CFCEF33FFEE33FEED1E
:1001890033FD020235E803F830E705C0F075F000E9
:10019900EF2FFFEE33FEED33FD40B830E7C280AA02
:1001A90075F020800E75F010800575F0087D007ED1
:1001B900007F003392D530D503120332EC3340105F
:1001C900EF33FFEE33FEED33FDEC33FCD5F0ED22DA
:0E01D900E5F0247EA2D513CC92E7CDCEFF2216
:1001E700EDD2E7CD33EC3392D524814006E4FFFE10
:1001F700FDFC22FCE4CFCECDCC24E0501174FF806F
:10020700EDC3CC13CCCD13CDCE13CECF13CF04700B
:07021700F030D5DE020332D6
:10021E00E9D2E7C933E833F892D5EDD2E7CD33EC26
:07022E0033FC5002B2D5229F
:10023500EC30E7100FBF000C0EBE00080DBD00042A
:100245000BEB6014A2D5EB13FCED92E7FD2274FFD6
:10025500FCFDFEFF22E480F8A2D574FF13FC7D802F
:03026500E480EF43
:10026800BB010CE58229F582E5833AF583E022504B
:1002780006E92582F8E622BBFE06E92582F8E22295
:0D028800E58229F582E5833AF583E49322AF
:10029500EF8DF0A4A8F0CF8CF0A428CE8DF0A42E7D
:0202A500FE2237
:1002A700BC000BBE0029EF8DF084FFADF022E4CC3B
:1002B700F875F008EF2FFFEE33FEEC33FCEE9DEC04
:1002C700984005FCEE9DFE0FD5F0E9E4CEFD22ED4A
:1002D700F8F5F0EE8420D21CFEADF075F008EF2F94
:1002E700FFED33FD4007985006D5F0F222C398FD85
:0502F7000FD5F0EA2222
:1002FC00C2D5EC30E709B2D5E4C39DFDE49CFCEE1D
:10030C0030E715B2D5E4C39FFFE49EFE1202A7C3EB
:10031C00E49DFDE49CFC80031202A730D507C3E4E6
:06032C009FFFE49EFE228B
:0E033200C3E49FFFE49EFEE49DFDE49CFC22DC
:00000001FF
