:030000000200E219
:0C00E200787FE4F6D8FD75811302012937
:06000300010E00010F00D8
:10023700120252750A00750B3C750C00750D37E4F8
:0B024700F590D297D29612000E80FBBB
:03000B0002016E81
:10016E00C0E0C0F0C0D075D000C000C004C005C053
:03017E0006C007B1
:100181000509E50970020508AE08FF7C007D6412CF
:1001910001E28C088D09758A66758CFCD3E50B9597
:1001A10009E50A95085002C297D3E50B9509E50ABE
:1001B10095084002D297D3E50D9509E50C950850B5
:1001C10002C296D3E50D9509E50C95084002D29639
:1001D100D007D006D005D004D000D0D0D0F0D0E0E8
:0101E10032EB
:100252005389F0438901758A66758CFCC28DD28CF4
:05026200D2AFD2A92279
:10032400C295C293C294C292E4F50AF50BF50CF59A
:020334000D2298
:10026700D295D293C294C292750A00750B19750C78
:0502770000750D1F22BF
:10027C00D295D293C294C292750A00750B14750C68
:05028C0000750D2422A5
:10029100D295D293C294C292750A00750B1E750C49
:0502A10000750D1A229A
:1002A600C295D293D294C292750A00750B3C750C16
:0502B60000750D2E2271
:1002BB00D295C293C294D292750A00750B28750C15
:0502CB0000750D512239
:1002D000D295D293C294C292750A00750B01750C27
:0502E00000750D1A225B
:1002E500D295D293C294C292750A00750B01750C12
:0502F50000750D15224B
:1002FA00D295D293C294C292750A00750B12750CEC
:05030A0000750D062244
:10000E0020A00C20A10920A20620A3031203242065
:10001E00A00C30A10930A20620A30312026720A073
:10002E002920A12630A22320A3201202917F047E34
:10003E000012030F20A01320A11020A20D20A30A4E
:10004E0012027C7F327E0012030F20A02930A126DF
:10005E0020A22320A32012027C7F047E0012030F15
:10006E0020A01320A11020A20D20A30A1202917F1E
:10007E00327E0012030F30A00930A10630A20330E9
:10008E00A30C30A04E30A14B20A24820A345120253
:10009E00677F327E0012030F20A03820A13520A2E8
:1000AE003220A32F1203247FC87E0012030F1202E8
:1000BE00D020A0FD30A1FA20A2F720A3F47FC87EA5
:1000CE000012030F1202FA20A0FD30A1FA30A2F79F
:0400DE0020A3F42245
:10030F00EF1FAC0670011E4C600A7D027CEFDCFE15
:04031F00DDFC80EC95
:0103230022B7
:1000EE00020237E493A3F8E493A34003F68001F2EF
:1000FE0008DFF48029E493A3F85407240CC8C33313
:10010E00C4540F4420C8834004F456800146F6DFE1
:10011E00E4800B0102040810204080900003E47E6E
:10012E00019360BCA3FF543F30E509541FFEE493D6
:10013E00A360010ECF54C025E060A840B8E493A39D
:10014E00FAE493A3F8E493A3C8C582C8CAC583CAC8
:10015E00F0A3C8C582C8CAC583CADFE9DEE780BE80
:0100090000F6
:1001E200BC000BBE0029EF8DF084FFADF022E4CC01
:1001F200F875F008EF2FFFEE33FEEC33FCEE9DECCA
:10020200984005FCEE9DFE0FD5F0E9E4CEFD22ED0F
:10021200F8F5F0EE8420D21CFEADF075F008EF2F59
:10022200FFED33FD4007985006D5F0F222C398FD4A
:050232000FD5F0EA22E7
:00000001FF
