:03000000020257A2
:0C025700787FE4F6D8FD75813802029E25
:0303E40012047E82
:1003E7001200038F36E53660047F0180027F00EF3D
:0B03F70060EEAB367D017F011204AB0D
:0204020080E395
:10046A001108003132334134353642373839432A9C
:03047A00302344E8
:10000300E4F537F5387590FFC2902094167F14FEFF
:100013001204553094FD7F147E0012045575370089
:100023007538012095177F147E001204553095FD15
:100033007F147E0012045575370075380220961719
:100043007F147E001204553096FD7F147E00120447
:10005300557537007538032097177F147E001204F7
:10006300553097FD7F147E0012045575370075389F
:10007300047590FFC2912094177F147E00120455DB
:100083003094FD7F147E00120455753700753805D2
:100093002095177F147E001204553095FD7F147E42
:1000A300001204557537007538062096177F147EA5
:1000B300001204553096FD7F147E001204557537E7
:1000C300007538072097177F147E00120455309768
:1000D300FD7F147E0012045575370075380875903E
:1000E300FFC2922094177F147E001204553094FDB2
:1000F3007F147E0012045575370075380920951753
:100103007F147E001204553095FD7F147E00120487
:100113005575370075380A2096177F147E00120430
:10012300553096FD7F147E001204557537007538DF
:100133000B2097177F147E001204553097FD7F1410
:100143007E0012045575370075380C7590FFC29305
:100153002094177F147E001204553094FD7F147E83
:100163000012045575370075380D2095177F147EDE
:10017300001204553095FD7F147E00120455753727
:100183000075380E2096177F147E001204553096A2
:10019300FD7F147E0012045575370075380F2097C4
:1001A300177F147E001204553097FD7F147E0012D2
:0F01B300045575370075381074082538F8E6FFC5
:0101C200221A
:10045500EF1FAC0670011E4C600A7D027CEFDCFECE
:04046500DDFC80EC4E
:010469002270
:06049200C2A58F80D2A775
:080498007F027EEFDEFEDFFCB7
:0104A0002239
:0A04A100C2A6120492C2A70204983A
:10040400CFCDCFCECCCE1202027C007D0A120202E6
:04041400ED2430FFA4
:0A041800D2A6120492C2A7020498B3
:10043F00AE07BE0104ED148006BE0209ED243F4451
:06044F0080FF1204A1224F
:10047E007F381204A17F0C1204A17F061204A17F03
:04048E00010204A1C2
:0A04AB00AC0312043FAF0402041872
:0603C1008B338A348935FC
:1003C70012043FE4FDAB33AA34A9358D827583004F
:0C03D7001201C3FF60061204180D80E93B
:0103E30022F7
:0C038E007F0AEA24FFFDE434FFFC7E003F
:08039A008E2F8F308C318D3263
:1003A2007F017E00E4FBEBC39532E5316480F87493
:0E03B2008098500AAC2FAD301201F00B80E89D
:0103C000221A
:040422008A228B237C
:1004260012043FAA24EAD39400400D12038EAC2294
:08043600AD231204041A80ED4D
:01043E00229B
:1002E30012043FC3EA64809480400B7F2B120418EE
:1002F3008A1E8B1F800E7F2D120418C3E49BF51FEB
:10030300E49AF51EAA1DEAD39400400D12038EACA5
:090313001EAD1F1204041A80ED56
:01031C0022BE
:04031D008A278B2878
:1003210012043FAA29EAD3940040297F10120390B6
:10033100AC27AD28CFCDCFCECCCE120202EF540FD9
:10034100FEC3940AEE5004243080022437FF1204C5
:04035100181A80D125
:010355002285
:040356008A2C8B2D35
:10035A0012043FAA2EEAD394004028EA24FFFDE4BF
:10036A0034FFFC7F027E0012039AAC2CAD2DCFCD58
:10037A00CFCECCCE120202EF54012430FF12041861
:03038A001A80D204
:01038D00224D
:100263000203E4E493A3F8E493A34003F68001F2CA
:1002730008DFF48029E493A3F85407240CC8C3339C
:10028300C4540F4420C8834004F456800146F6DF6B
:10029300E4800B010204081020408090046AE47E8D
:1002A300019360BCA3FF543F30E509541FFEE49360
:1002B300A360010ECF54C025E060A840B8E493A327
:1002C300FAE493A3F8E493A3C8C582C8CAC583CA52
:1002D300F0A3C8C582C8CAC583CADFE9DEE780BE0A
:01047D00007E
:1001C300BB010CE58229F582E5833AF583E02250F1
:1001D30006E92582F8E622BBFE06E92582F8E2223B
:0D01E300E58229F582E5833AF583E4932255
:1001F000EF8DF0A4A8F0CF8CF0A428CE8DF0A42E23
:02020000FE22DC
:10020200BC000BBE0029EF8DF084FFADF022E4CCE0
:10021200F875F008EF2FFFEE33FEEC33FCEE9DECA9
:10022200984005FCEE9DFE0FD5F0E9E4CEFD22EDEF
:10023200F8F5F0EE8420D21CFEADF075F008EF2F39
:10024200FFED33FD4007985006D5F0F222C398FD2A
:050252000FD5F0EA22C7
:00000001FF
